:100000007350003073504030F322103093F21200DE
:1000100063940202F322503093F232000543639D51
:100020006200F322503093F2C2FF17030000130363
:10003000630D6396620239A0970200009382820CDE
:1000400073905230975100009381C13517810000A1
:10005000130141906F00205B01A06F00600A0290C5
:100060000000000000000000000000000000000090
:100070000000000000000000000000000000000080
:100080000000000000000000000000000000000070
:100090000000000000000000000000000000000060
:1000A0000000000000000000000000000000000050
:1000B0000000000000000000000000000000000040
:1000C0000000000000000000000000000000000030
:1000D0000000000000000000000000000000000020
:1000E0000000000000000000000000000000000010
:1000F0000000000000000000000000000000000000
:1001000041A000000000000000000000C1A80000A5
:1001100000000000000000000000000019A2000024
:1001200000000000000000000000000035AA0000F0
:1001300000000000000000000000000000000000BF
:10014000BDA2000045AA0000000000000000000061
:10015000000000000000000000000000000000009F
:10016000E9AA000031AC0000B9AC000045A40000D1
:10017000CDA4000015A60000000095A61300000005
:1001800019710100130000001300000013000000AB
:1001900006C00AC20EC412C616C81ACA1ECC22CE87
:1001A00026D02AD22ED432D636D83ADA3EDC42DEF7
:1001B000C6C0CAC2CEC4D2C6D6C8DACADECCE2CE67
:1001C000E6D0EAD2EED4F2D6F6D8FADAFEDC73251F
:1001D0002034F3251034EF008059A9A6197106C008
:1001E0000AC20EC412C616C81ACA1ECC22CE26D007
:1001F0002AD22ED432D636D83ADA3EDC42DEC6C017
:10020000CAC2CEC4D2C6D6C8DACADECCE2CEE6D0E6
:10021000EAD2EED4F2D6F6D8FADAFEDCEF00C0531A
:1002200011A6197106C00AC20EC412C616C81ACA8F
:100230001ECC22CE26D02AD22ED432D636D83ADAC6
:100240003EDC42DEC6C0CAC2CEC4D2C6D6C8DACAF6
:10025000DECCE2CEE6D0EAD2EED4F2D6F6D8FADAA6
:10026000FEDCEF0040497DAC197106C00AC20EC425
:1002700012C616C81ACA1ECC22CE26D02AD22ED416
:1002800032D636D83ADA3EDC42DEC6C0CAC2CEC466
:10029000D2C6D6C8DACADECCE2CEE6D0EAD2EED4F6
:1002A000F2D6F6D8FADAFEDCEF30201BA5AC1971D5
:1002B00006C00AC20EC412C616C81ACA1ECC22CE66
:1002C00026D02AD22ED432D636D83ADA3EDC42DED6
:1002D000C6C0CAC2CEC4D2C6D6C8DACADECCE2CE46
:1002E000E6D0EAD2EED4F2D6F6D8FADAFEDCEF00A7
:1002F00080690DAC197106C00AC20EC412C616C8B8
:100300001ACA1ECC22CE26D02AD22ED432D636D825
:100310003ADA3EDC42DEC6C0CAC2CEC4D2C6D6C8B5
:10032000DACADECCE2CEE6D0EAD2EED4F2D6F6D805
:10033000FADAFEDCEF004064F5A2197106C00AC2C9
:100340000EC412C616C81ACA1ECC22CE26D02AD275
:100350002ED432D636D83ADA3EDC42DEC6C0CAC225
:10036000CEC4D2C6D6C8DACADECCE2CEE6D0EAD255
:10037000EED4F2D6F6D8FADAFEDCEF30A0115DA2A8
:10038000197106C00AC20EC412C616C81ACA1ECCFB
:1003900022CE26D02AD22ED432D636D83ADA3EDC35
:1003A00042DEC6C0CAC2CEC4D2C6D6C8DACADECC05
:1003B000E2CEE6D0EAD2EED4F2D6F6D8FADAFEDC15
:1003C000EF00A06185A2197106C00AC20EC412C650
:1003D00016C81ACA1ECC22CE26D02AD22ED432D685
:1003E00036D83ADA3EDC42DEC6C0CAC2CEC4D2C675
:1003F000D6C8DACADECCE2CEE6D0EAD2EED4F2D665
:10040000F6D8FADAFEDCEF00605C29AA197106C0A2
:100410000AC20EC412C616C81ACA1ECC22CE26D0D4
:100420002AD22ED432D636D83ADA3EDC42DEC6C0E4
:10043000CAC2CEC4D2C6D6C8DACADECCE2CEE6D0B4
:10044000EAD2EED4F2D6F6D8FADAFEDCEF00205784
:10045000D1A8197106C00AC20EC412C616C81ACA9B
:100460001ECC22CE26D02AD22ED432D636D83ADA94
:100470003EDC42DEC6C0CAC2CEC4D2C6D6C8DACAC4
:10048000DECCE2CEE6D0EAD2EED4F2D6F6D8FADA74
:10049000FEDCEF00E05179A0197106C00AC20EC45B
:1004A00012C616C81ACA1ECC22CE26D02AD22ED4E4
:1004B00032D636D83ADA3EDC42DEC6C0CAC2CEC434
:1004C000D2C6D6C8DACADECCE2CEE6D0EAD2EED4C4
:1004D000F2D6F6D8FADAFEDCEF00A04CA1A0197132
:1004E00006C00AC20EC412C616C81ACA1ECC22CE34
:1004F00026D02AD22ED432D636D83ADA3EDC42DEA4
:10050000C6C0CAC2CEC4D2C6D6C8DACADECCE2CE13
:10051000E6D0EAD2EED4F2D6F6D8FADAFEDCEF0074
:10052000604709A0B72200009382028073A00230C6
:1005300082401241A2413242C2425243E2437244DB
:1005400082541255A2553256C2565257E25772582B
:1005500086481649A649364AC64A564BE64B764C5B
:10056000865C165DA65D365EC65E565FE65F096117
:1005700073002030000000000000000000000000B8
:10058000011122CE00102326A4FE2324B4FE232230
:10059000C4FE0DA08327C4FE9843832784FE98C31E
:1005A0008327C4FE91072326F4FE832784FE910748
:1005B0002324F4FE032784FE832744FEE3FCE7FCA8
:1005C0000100724405618280797122D60018232EC1
:1005D000A4FC232CB4FC8327C4FD2326F4FE11A81D
:1005E0008327C4FE23A007008327C4FE9107232688
:1005F000F4FE0327C4FE832784FDE3F3E7FE010036
:10060000325445618280011106CE22CC0010B747DA
:100610000080938707072326F4FE8327C4FE232048
:10062000F4FE232204FE232404FEB7570080138720
:1006300007BAB7570080938707BA630DF700138690
:100640000181B7570080938507BAB757008013859B
:1006500007BA3D3713870181938701816309F7004A
:100660001386013F9385018113850181113F938595
:1006700001411385013F893F9385015B138501414A
:10068000A137930704FEBE850545EF20F01D01004C
:10069000F240624405618280411122C600080100D7
:1006A000324441018280411122C600089967985363
:1006B0009967759B98D301003244410182800111F2
:1006C00022CE001093070008F3B707302326F4FE6C
:1006D000F37704302324F4FE010072440561828024
:1006E000011122CE0010F36704302326F4FE01002E
:1006F000724405618280011106CE22CC001093075E
:100700000008F3B747302326F4FE8524B7C700025C
:10071000E11703A847009C4383A5013F03A6413F7F
:1007200037450002B386B700B688B3B8F800330780
:10073000C800B387E8003E87B6873A881CC12322E9
:10074000050193070008F3A747302324F4FE0100B6
:10075000F240624405618280411106C622C400084D
:10076000FD2A91370100B2402244410182805D712F
:1007700086C6A2C48008232EA4FA232CB4FA8327A9
:10078000C4FB63DF07000327C4FBB707008093C7E0
:10079000F7FF7D8FAD476315F700EF20104C5DAA82
:1007A0008327C4FB63DE07000327C4FBB707008071
:1007B00093C7F7FF7D8F8D476314F700713F59AAE8
:1007C0008327C4FB63DE07000327C4FBB707008051
:1007D00093C7F7FF7D8F9D476314F700293F9DAABC
:1007E0008327C4FB63DF07000327C4FBB707008030
:1007F00093C7F7FF7D8FE1476315F700EF2090491E
:1008000091AA8327C4FB63DE07000327C4FBB70755
:10081000008093C7F7FF7D8FE5476314F700752AC3
:1008200015AA8327C4FB63DE07000327C4FBB707B1
:10083000008093C7F7FF7D8FE9476314F7007922A3
:1008400011AA8327C4FB63DE07000327C4FBB70795
:10085000008093C7F7FF7D8FED476314F700852273
:10086000D5A88327C4FB63DE07000327C4FBB707B3
:10087000008093C7F7FF7D8FF1476314F7000D2ABF
:10088000D1A88327C4FB63DE07000327C4FBB70797
:10089000008093C7F7FF7D8FF5476314F70011229F
:1008A00055A88327C4FB63DE07000327C4FBB707F3
:1008B000008093C7F7FF7D8FF9476314F700D928AD
:1008C00051A88327C4FB63DE07000327C4FBB707D7
:1008D000008093C7F7FF7D8FC1476314F700652041
:1008E00095A88327C4FB63DE07000327C4FBB70773
:1008F000008093C7F7FF7D8FC5476314F700AD28CD
:1009000091A8F32740342326F4FE8327C4FE232432
:10091000F4FEF32730342322F4FE832744FE232001
:10092000F4FEF3275030232EF4FC8327C4FD232C40
:10093000F4FCF3270034232AF4FC832744FD232806
:10094000F4FCF32700302326F4FC8327C4FC232483
:10095000F4FC02900100B64026446161828041119E
:1009600006C622C4000829454120411122C60008BC
:100970000100324441018280411122C60008010079
:10098000324441018280411122C6000801003244F4
:1009900041018280411122C6000801003244410118
:1009A0008280411122C60008010032444101828048
:1009B000411122C6000801003244410182804111E8
:1009C00022C600080100324441018280411122C642
:1009D00000080100324441018280411122C6000812
:1009E0000100324441018280011122CE00102326F1
:1009F000A4FE01A0011122CE00102326A4FEB757A9
:100A0000008003A707BA8327C4FE3E979387015B44
:100A1000636FF700B757008003A707BA8327C4FEA8
:100A20003E97B77700809387079563F4E700FD57FB
:100A30002DA0B757008003A707BA8327C4FE3E97AF
:100A4000B757008023A0E7BAB757008003A707BABB
:100A50008327C4FEB307F040BA973E857244056110
:100A60008280411106C622C400089D390100B240AF
:100A7000224441018280011106CE22CC0010F327CE
:100A800000302326F4FE8327C4FE2324F4FE053918
:100A9000832784FE3E85F240624405618280011115
:100AA00022CE00102326A4FE8327C4FE73900730B5
:100AB00001007244056182800CC1828008418280FD
:100AC000368E331EBE00337ECE0003230500B28374
:100AD00093C3F3FF337373003363C30123206500B3
:100AE00082800841718D3355B50082802310B50096
:100AF0008280031505008280368E331EBE00337E51
:100B0000CE0003130500B28393C3F3FF3373730066
:100B10003363C30123106500828003150500718DC6
:100B20003355B50082802300B5008280030505009F
:100B30008280368E331EBE00337ECE000303050056
:100B4000B28393C3F3FF337373003363C301230092
:100B50006500828003050500718D3355B5008280E4
:100B6000797106D622D40018232EA4FC232CB4FCC1
:100B7000B2873687231BF4FCBA87A30AF4FC8327C9
:100B8000C4FDC1CF034754FD9D4763E8E708035701
:100B900064FD89676373F708832784FD13878700E3
:100BA000835764FD93F7F70FBE853A85AD3F8327E2
:100BB00084FD9386C700034754FD835764FD9587E2
:100BC00093F7877FD98FBE853685B13F8327C4FDD4
:100BD000032784FD98C38327C4FD9C43C1073E853A
:100BE000B137AA87898BA307F4FE0DA08327C4FD24
:100BF0009C4391073E851D3F8327C4FD9C43C1074D
:100C00003E852D37AA87898BA307F4FE8347F4FE20
:100C1000F1FF8327C4FD238207000100B250225454
:100C200045618280797106D622D40018232EA4FC57
:100C3000232CB4FC232AC4FC8327C4FDB9CF83270B
:100C400084FDA1CF832744FDA9CB232604FE81A0E8
:100C50008327C4FD9C43C1073E85C93DAA87858B78
:100C6000A305F4FE8347B4FEE5D78327C4FD944370
:100C7000032784FD8327C4FEBA9783C70700BE8578
:100C8000368555358327C4FE85072326F4FE0327C2
:100C9000C4FE832744FDE36DF7FA0100B2502254ED
:100CA00045618280797106D622D426D20018232E7F
:100CB000A4FC232CB4FC232AC4FC232404FE832795
:100CC000C4FDD5CF832784FDDDCB832744FDC5CB71
:100CD000232404FE8327C4FD9C43C1073E85B93508
:100CE000AA87A303F4FE8327C4FD03C747008347F5
:100CF00074FED98F13F7F70F8327C4FD2382E70013
:100D0000834774FE898BA307F4FE8DA08327C4FD5F
:100D10009C4393864700032784FD832784FEB30406
:100D2000F70036852135AA872380F400832784FEC7
:100D300085072324F4FE8327C4FD9C43C1073E8519
:100D4000F533AA87A303F4FE8327C4FD03C7470036
:100D5000834774FED98F13F7F70F8327C4FD2382CF
:100D6000E700834774FE898BA307F4FE8347F4FEF4
:100D700099C7032784FE832744FDE369F7F8832797
:100D800084FE3E85B250225492544561828079712E
:100D900006D622D40018232EA4FC232CB4FC8327CF
:100DA000C4FDB1CF832784FDB9CB232604FE81A0E7
:100DB0008327C4FD9C43C1073E858D3BAA87858B55
:100DC000A305F4FE8347B4FEE5D78327C4FD94430F
:100DD000032784FD8327C4FEBA9783C70700BE8517
:100DE000368591338327C4FE85072326F4FE032727
:100DF00084FD8327C4FEBA9783C70700D5FB010093
:100E0000B250225445618280797106D622D40018EE
:100E1000232EA4FC232CB4FCB2872328D4FCA30BE0
:100E2000F4FC832704FD2326F4FEB1312324A4FE21
:100E30001306C00681450325C4FDEF20606C83279F
:100E4000C4FD032784FD98C3834774FD13971700DF
:100E50008327C4FDD8C38327C4FD9C438146130662
:100E6000000499453E85F1318327C4FD9C438546A6
:100E70001306000499453E856D398327C4FD9843C8
:100E80008327C4FE8983858BBE86130600089D4593
:100E90003A8545318327C4FD98438327C4FE858363
:100EA000858BBE86094685453A8561318327C4FD19
:100EB00098438327C4FE858BBE86054681453A85C7
:100EC0008D398327C4FD9C431387C7008327C4FD46
:100ED000DC43BE853A8581398327C4FD9C43138753
:100EE000C7018327C4FDDC43BE853A852D39032520
:100EF00084FE75360100B2502254456182807971BA
:100F000006D622D40018232EA4FCAE87232AC4FCC4
:100F1000A30DF4FCB687231CF4FCBA87230DF4FC64
:100F2000993E2326A4FE8327C4FD83C7C70091E70B
:100F30008327C4FD05472386E7008327C4FD0547B3
:100F40002385E7068347B4FD139717008327C4FD65
:100F500098C78327C4FD23A207028327C4FD032764
:100F600044FD98CF035784FD8327C4FDD8CF832742
:100F7000C4FD23A007028327C4FD0547D8DB8327D0
:100F8000C4FD0347A4FD238AE7008327C4FDF84B73
:100F900085476318F7008327C4FD0547A384E70648
:100FA00011A88327C4FD9C4385461306000295457E
:100FB0003E8541368327C4FD03C787068547631AEC
:100FC000F7008327C4FD9C43814621468D453E851D
:100FD0008D368327C4FD9C4391073E85813EAA87B9
:100FE000A305F4FE8347B4FE93F7F70FA305F4FEC1
:100FF0000325C4FDEF0030150325C4FE4D34010068
:10100000B250225445618280397106DE22DC8000B4
:10101000232EA4FC232AC4FC36862328E4FCBE86A7
:101020004287AE87A30DF4FCB287231CF4FCB6877D
:101030002317F4FCBA87230DF4FC8327C4FD09476A
:10104000D8DB8357E4FC63840710835784FD6380F7
:10105000071015342326A4FE8327C4FD83C7C700C9
:1010600091E78327C4FD0D472386E7008327C4FD4E
:101070000D472385E7068347B4FD139717008327A1
:10108000C4FD98C78327C4FD23A207028327C4FD9C
:10109000032744FD98CF035784FD8327C4FDD8CF91
:1010A0008327C4FD23A007028327C4FD032704FD73
:1010B00098D70357E4FC8327C4FDD8D78327C4FD02
:1010C00023A807028327C4FD0547D8DB8327C4FD77
:1010D0000347A4FD238AE7008327C4FDF84B854717
:1010E0006318F7008327C4FD0547A384E70611A80A
:1010F0008327C4FD9C4385461306000295453E8523
:101100000D3C8327C4FD03C787068547631AF70094
:101110008327C4FD9C43814621468D453E85113C75
:101120008327C4FD9C4391073E850934AA87A30504
:10113000F4FE8347B4FE93F7F70FA305F4FE0325EF
:10114000C4FDEF0050000325C4FEEFF05F950100E1
:10115000F250625421618280797106D622D400183F
:10116000232EA4FC232CB4FCEFF0FF902326A4FE36
:101170008327C4FD032784FD98DF0325C4FEEFF019
:101180001F928327C4FDDC5B2324F4FE032784FE27
:101190008547E308F7FE832784FE3E85B25022543C
:1011A00045618280011106CE22CC00102326A4FEC8
:1011B0008327C4FE83C7070691CB8327C4FE9C43C5
:1011C0008546114689453E85EFF0BF960100F24005
:1011D000624405618280797106D622D426D2001835
:1011E000232EA4FC8547A307F4FE8327C4FD9C435C
:1011F00091073E85EFF09F93AA87A303F4FE8347F0
:1012000074FE93F7F70FE1171307800D636DF7680E
:1012100013972700B747008093878707BA979C43A7
:1012200082878327C4FD9C438146130600029545AF
:101230003E85EFF01F908327C4FD9C4313878700F2
:101240008327C4FD9C47BE853A85EFF0DF8D832759
:10125000C4FD9C43138787008327C4FDDC53BE86EF
:10126000054681453A85EFF0DF8C8327C4FDDC53CA
:1012700091E78327C4FD23A0070229A08327C4FD8B
:1012800023A807028327C4FD83C7970689C783273E
:10129000C4FDA38407068327C4FD03C7C7008327B3
:1012A000C4FD83C7A7066309F7648327C4FD03C78A
:1012B000A7068327C4FD2386E7003DAD8327C4FD31
:1012C0009C4385461306000295453E85EFF07F86D8
:1012D0003DAD8327C4FD9C438546414691453E85EF
:1012E000EFF03F858327C4FD0947D8DB8327C4FD82
:1012F000238607000325C4FD753511AD8327C4FD82
:1013000098538327C4FDDC4F6379F7028327C4FD1C
:101310009C43138587008327C4FD984F8327C4FD12
:101320009C53138617008326C4FD90D2BA9783C7B7
:101330000700BE85EFF02FFFD9AB8327C4FD03C79D
:10134000C7008D476311F7028327C4FD0547D8D333
:101350008327C4FD9C4385461306000295453E85C0
:10136000EFF02FFD6DA38327C4FD2386070083279D
:10137000C4FD83C74701858B2307F4FE8327C4FD83
:101380000347E4FE2384E7068347E4FE91EF8327C7
:10139000C4FD9C438546414691453E85EFF06FF97B
:1013A0000325C4FD013531A00325C4FD7523A30722
:1013B00004FE8327C4FD23AA070291AB8327C4FD43
:1013C0009C438546414691453E85EFF08FF6832745
:1013D000C4FD0947D8DB8327C4FD23860700032506
:1013E000C4FDC9332DA38327C4FDD857854763FCAB
:1013F000E7008327C4FD9C438546114689453E8509
:10140000EFF02FF329A38327C4FDD8578547631C2A
:10141000F7008327C4FD9C438146114689453E85DC
:10142000EFF02FF1EDA18327C4FD9C4385461146C3
:1014300089453E85EFF0EFEF8327C4FD9C43854649
:10144000414691453E85EFF0CFEE8327C4FD23AAA8
:1014500007028327C4FD2386070055A98327C4FDFF
:101460009C438546414691453E85EFF08FEC8327AE
:10147000C4FD0947D8DB8327C4FD23860700032565
:10148000C4FD0D3369A18327C4FD9C439385870068
:101490008327C4FD98578327C4FD9C5B13861700E0
:1014A0008326C4FD90DAB304F7002E85EFF00FE831
:1014B000AA872380F4008327C4FD985B8327C4FD9B
:1014C000DC57FD17636CF7428327C4FD9C438146BC
:1014D000114689453E85EFF0CFE50DA18327C4FD78
:1014E0009C43938687008327C4FD98578327C4FDB8
:1014F0009C5BB304F7003685EFF04FE3AA872380A7
:10150000F4008327C4FD83C74701858B2307F4FEBE
:101510008327C4FD0347E4FE2384E7068347E4FEF4
:1015200091EF8327C4FD9C438546414691453E8506
:10153000EFF02FE00325C4FDB53131A00325C4FD34
:101540002129A30704FE8327C4FD238607008327E0
:10155000C4FD23AA070265AE8327C4FD9C438546CC
:10156000114689453E85EFF0CFDC8327C4FD2386F5
:1015700007008327C4FD23AA07048327C4FD83C76C
:101580009706638F07368327C4FD9C438546130661
:10159000000295453E85EFF0CFD99DA68327C4FD77
:1015A0000547A384E7068327C4FD11472386E70088
:1015B0008327C4FD23A807048327C4FD23A80700AD
:1015C0008327C4FD9C431306000295453E85EFF03A
:1015D0006FD8AA8785C38327C4FD9C438146130621
:1015E000000295453E85EFF0CFD48327C4FD054723
:1015F000A384E7068327C4FD0547F8CB09AE8327FC
:10160000C4FDBC47B1CF8327C4FDB84B8327C4FDBD
:10161000FC476377F7048327C4FD9C43A1073E85FD
:10162000EFF0CFD0AA87A306F4FE8327C4FDB84706
:101630008327C4FDBC4B138617008326C4FDB0CAA4
:10164000BA970347D4FE2380E7008327C4FD9C4B51
:10165000139787008347D4FE3E978327C4FD98CB1A
:101660008327C4FDB84B8327C4FDFC47636CF72870
:101670008327C4FD9C438146114689453E85EFF092
:101680004FCB49A48327C4FD03C7C7009147631507
:10169000F7088327C4FDB84B8327C4FDBC4F6318EC
:1016A000F7008327C4FD984B8327C4FDF8C3832725
:1016B000C4FDFC4FA1CB8327C4FDF44F8327C4FD99
:1016C000B8478327C4FDBC4BC207C1833E86BA8599
:1016D0000325C4FD82962324A4FE832784FE89E784
:1016E0000325C4FDC13481A08327C4FD9C438146EA
:1016F000114689453E85EFF0CFC38327C4FD238083
:10170000070615A08327C4FD9C43854611468945DD
:101710003E85EFF00FC201A88327C4FD23A2070472
:101720000325C4FD41348327C4FD23AA070483276E
:10173000C4FD83C7970699CB8327C4FD9C43854688
:101740001306000295453E85EFF0AFBE8327C4FD2A
:10175000238607006DAA8327C4FD238607008327FD
:10176000C4FD23A207048327C4FDF84B85476316F5
:10177000F7008327C4FD0947F8CB0325C4FD1D34BA
:1017800079A2834774FE13F7F70F9307800A631952
:10179000F7048327C4FD15472386E7008327C4FD8C
:1017A00023A807008327C4FD0547F8CB8327C4FD82
:1017B0009C431306000295453E85EFF0AFB9AA871A
:1017C00085C38327C4FD9C438146130600029545CB
:1017D0003E85EFF00FB68327C4FD0547A384E706D7
:1017E0008327C4FDF8438327C4FDBC43636CF70023
:1017F0008327C4FD9C43A1079305F00F3E85EFF0BE
:101800008FB23DA08327C4FD9C43138587008327A7
:10181000C4FDD85F8327C4FDFC43138617008326CD
:10182000C4FDF0C2BA9783C70700BE85EFF0AFAF23
:101830008327C4FDF8438327C4FDBC436366F70CCC
:101840008327C4FD9C438146114689453E85EFF0C0
:101850004FAE8327C4FD23A207047DA08327C4FDC8
:1018600023A207048327C4FD9C438546114689456E
:101870003E85EFF00FAC8327C4FD23AA070483271E
:10188000C4FD83C7970699CB8327C4FD9C43854637
:101890001306000295453E85EFF0AFA98327C4FDEE
:1018A00023860700ADA08327C4FD9C438146130611
:1018B000000295453E85EFF0CFA78327C4FD238620
:1018C00007008327C4FD23A207048327C4FDD85B38
:1018D00085476316F7008327C4FD0947D8DB8327B4
:1018E000C4FDF84B85476313F7028327C4FD0947FE
:1018F000F8CB29A8010021A8010011A8010001A826
:10190000010031A0010021A0010011A001008347C6
:10191000F4FE91CB8327C4FD9C43814621468D452F
:101920003E85EFF00FA18327C4FD9C4391073E85C0
:10193000EFF0CF9FAA87A303F4FE0100B250225418
:10194000925445618280011122CE00102326A4FE0C
:101950000100724405618280011122CE001023260D
:10196000A4FE0100724405618280797106D622D4FA
:101970000018232EA4FC232CB4FC232AC4FCA307A8
:1019800004FE832784FD2324F4FE8327C4FD03275C
:1019900084FD98C38327C4FD032744FDD8C3A30750
:1019A00004FE832784FD2324F4FE05A0814503253E
:1019B00084FEEFF04F97832784FE91072324F4FEE3
:1019C0008347F4FE8507A307F4FE0347F4FEFD47B3
:1019D000E3FEE7FC8327C4FDDC4305476380E702A1
:1019E000A9C70947639CE7088327C4FD9C439387E5
:1019F0000708FD553E85EFF02F8C51A08327C4FDCD
:101A00009C4313870708C1679385F7FF3A85EFF07A
:101A1000EF8D8327C4FD9C4313874708C1679385D7
:101A2000F7FF3A85EFF08F8C99A88327C4FD9C437C
:101A3000938707089305F00F3E85EFF0CF8E83273D
:101A4000C4FD9C43938747089305F00F3E85EFF054
:101A50008F8D8327C4FD9C43938787089305F00FE0
:101A60003E85EFF04F8C8327C4FD9C439387C708C6
:101A70009305F00F3E85EFF00F8B11A001000100E0
:101A8000B250225445618280797106D622D4001862
:101A9000232EA4FC232CB4FCB287A30BF4FC8327D5
:101AA000C4FDDC4305476388E7066389070E0947E1
:101AB0006399E7168327C4FD9C439387070A3E85F5
:101AC000EFE0DFFF2326A4FE834774FD99EF832711
:101AD00084FD0547B317F70093C7F7FF3E878327B9
:101AE000C4FEF98F2326F4FE21A8832784FD054731
:101AF000B317F7003E878327C4FED98F2326F4FE51
:101B00008327C4FD9C439387070A8325C4FE3E8533
:101B1000EFE09FFA01AA8327C4FD9843832784FD41
:101B200091838A07BA979387070A2322F4FE032535
:101B300044FEEFE01FFCAA872315F4FE834774FDE3
:101B400095E7832784FDBD8B0547B317F700C207D0
:101B5000C18793C7F7FF1397070141878317A4FE37
:101B6000F98FC207C1872315F4FE0DA0832784FDDA
:101B7000BD8B0547B317F7001397070141878317FC
:101B8000A4FED98FC207C1872315F4FE8357A4FE94
:101B9000BE85032544FEEFE07FF569A08327C4FDE1
:101BA0009843832784FD8D838A07BA979387070A12
:101BB0002320F4FE032504FEEFE05FF7AA87A304C9
:101BC000F4FE834774FD95E7832784FD9D8B0547CD
:101BD000B317F700E207E18793C7F7FF1397870171
:101BE0006187830794FEF98FE207E187A304F4FE7F
:101BF0000DA0832784FD9D8B0547B317F70013972E
:101C000087016187830794FED98FE207E187A304E8
:101C1000F4FE834794FEBE85032504FEEFE0BFF08B
:101C200011A001000100B2502254456182807971F7
:101C300006D622D40018AA87AE863287A30FF4FCFA
:101C4000B687230FF4FCBA87A30EF4FC8347E4FDA8
:101C50008DC3938701410347E4FD2380E700938709
:101C600001410347D4FDA380E7008947A307F4FEA1
:101C700011A8938701410347D4FD2380E7008547DE
:101C8000A307F4FEB757008003A547BA8347F4FEC5
:101C9000C207C1838345F4FD0147BE861386014117
:101CA000EFF0EFA5B757008083A747BA81453E857F
:101CB000EFF08FCA2324A4FE832784FE3E85B25012
:101CC000225445618280797106D622D40018AA87F1
:101CD000232CC4FC3687A30FF4FCAE87230FF4FC3F
:101CE000BA87A30EF4FCB757008003A547BA834711
:101CF000D4FDC207C1831306E4FD8345F4FD01480A
:101D0000032784FD8546EFF02FB0B757008083A7E7
:101D100047BA81453E85EFF02FC42326A4FE8327D2
:101D2000C4FE3E85B2502254456182805D7186C6F4
:101D3000A2C48008B747008013854741E52AB7470A
:101D4000008013850744FD22930734FB85463E86B9
:101D50009305200413059003BD37834734FB93F7A5
:101D60000704FDD3B747008013858746E122930718
:101D700034FB85463E86814513059003A937AA8723
:101D800085E3834734FB3E86B74700809385C74889
:101D900013858149EF10007F13858149612A31A0A5
:101DA000B74700801385C74B71228547A305F4FE12
:101DB000232604FE75A0B74700801387C73D8327FD
:101DC000C4FE8607BA9783C60700B747008013870B
:101DD000C73D8327C4FE8607BA9783C717003E8690
:101DE000B68513059003A135AA8799C3A30504FE00
:101DF000B74700801387C73D8327C4FE8607BA977D
:101E000083C70700130734FB85463A86BE85130552
:101E10009003553DAA8795EFB74700801387C73DCC
:101E20008327C4FE8607BA9703C707008327C4FE2B
:101E30008607930604FFB6972382E7FC034734FB2B
:101E40008327C4FE8607930604FFB697A382E7FCA8
:101E500019A0A30504FE8327C4FE85072326F4FEEC
:101E60000327C4FEE947E3F8E7F4930734FB85460C
:101E70003E869305E00313059003B135AA87B9E3C5
:101E8000834734FB89832305F4FE0347A4FE85477B
:101E9000631BF700B74700809385474E1385814940
:101EA000EF10406E21A88347A4FE3E86B74700800E
:101EB0009385875113858149EF10C06C1385814943
:101EC000952831A0B74700801385C74BA520010096
:101ED000B640264461618280011122CE00108567E0
:101EE00093870780F3A747302326F4FE010072444E
:101EF00005618280797122D60018AA87A30FF4FCAD
:101F00008347F4FDE1070547B317F7002322F4FEEA
:101F1000832744FEF3A747302326F4FEF3274030FF
:101F20002324F4FE832784FE2322F4FE010032548E
:101F300045618280011106CE22CC00102326A4FE2A
:101F40008325C4FE13854142EFE07FE40100F240A7
:101F5000624405618280797122D60018AA87A30F96
:101F6000F4FCA30704FE0347F4FD9307000463F8A1
:101F7000E7000347F4FD9307600463FAE7020347B1
:101F8000F4FD9307000663F8E7000347F4FD9307A9
:101F9000600663FEE7000347F4FD9307F00263FC6D
:101FA000E7000347F4FD9307900363E6E7008547E6
:101FB000A307F4FE19A0A30704FE8347F4FE3E85A1
:101FC000325445618280397106DE22DC800023268E
:101FD000A4FCAE872322C4FC36872315F4FCBA8701
:101FE0002314F4FCA30704FEA30504FE231604FE39
:101FF000835784FC3E86832544FC13854142EFE0F1
:102000007FC231AA930784FE0546BE8513854142EF
:10201000EFE05FC9AA87A305F4FE8347B4FE63809F
:102020000710034784FEB5476312F7028357C4FEC7
:102030000327C4FCBA97238007008357C4FE850793
:102040002316F4FE8547A307F4FED1A8034784FEB8
:10205000A147631BF7008357C4FEF1C38357C4FE37
:10206000FD172316F4FE65A8834784FE3E85E535FB
:10207000AA873E8785476305F706930784FE0546D2
:10208000BE8513854142EFE0FFB9B74700809387D3
:1020900087548843CC439047D447984B2328A4FCCB
:1020A000232AB4FC232CC4FC232ED4FC2320E4FEDE
:1020B00083C747012302F4FE930704FD5546BE85FE
:1020C00013854142EFE01FB6835784FC3E8683258B
:1020D00044FC13854142EFE0FFB4A30704FE81A056
:1020E0008357C4FE0327C4FCBA97034784FE2380AA
:1020F000E7008357C4FE85072316F4FE930784FE8A
:102100000546BE8513854142EFE0DFB10357C4FEAB
:102110008357A4FC6315F7008547A307F4FE8347A4
:10212000F4FEE38107EE8357C4FE3E85F25062540D
:1021300021618280757106C722C50009232EA4F68D
:10214000AE87231DF4F6930740062317F4FE83564B
:10215000A4F70357E4FE930784F80326C4F7BA856F
:102160003E859535AA872316F4FEB7470080138570
:102170000756C933930784F83E856D3BB747008007
:1021800013850756453B930784F8414681453E85B4
:10219000EF108056AA873E85BA402A444961828062
:1021A000157186CFA2CDA6CBCAC9CEC7D2C5D6C31C
:1021B000DAC15EDF62DD66DB6AD980118A873E8D17
:1021C000AD45B747008013854756AD37AA87232E04
:1021D000F4F6AD45B747008013850757A13FAA879E
:1021E0002320F4F8AD45B74700801385C7579937CA
:1021F000AA872322F4F8AD45B74700801385875896
:10220000153FAA872324F4F8AD45B747008013850E
:1022100047590D37AA872326F4F8AD45B747008004
:102220001385075A013FAA872328F4F8AD45B7471D
:1022300000801385C75AFD3DAA87232AF4F8AD45CF
:10224000B74700801385875BF535AA87232CF4F800
:10225000AD45B74700801385475CE93DAA87232E2B
:10226000F4F8AD45B74700801385075DE135AA87CF
:102270002320F4FAAD45B74700801385C75D5D3D67
:10228000AA872322F4FAAD45B74700801385875EFD
:102290005535AA872324F4FAAD45B7470080138546
:1022A000475F493DAA872326F4FAAD45B74700802A
:1022B000138507604135AA872328F4FAAD45B7474F
:1022C00000801385C760BD35AA87232AF4FAAD457F
:1022D000B747008013858761B13DAA87232CF4FAA4
:1022E000930740062326F4FC8327C4FCFD17232410
:1022F000F4FC8327C4FC3E8C814C9357DC01939AF9
:102300003C00B3EA5701131A3C008327C4FC3E8B00
:10231000814B9357DB0193993B00B3E937011319C4
:102320003B008327C4FCBD07918392073301F14032
:102330001C18938707002322F4FC032F44FC832FEF
:10234000C4FC832284F8832344F8832004F8832484
:10235000C4F7032904F98327C4F8032784F98326E3
:1023600044F9032684FA832544FA032504FA032852
:10237000C4F9832884FB032344FB032E04FB832E30
:10238000C4FA76D472D21AD046CE42CC2ACA2EC80B
:1023900032C636C43AC23EC0CA88268886871E879F
:1023A00096863746008013064662FE857A85EF10D2
:1023B0002016832744FC3E85B53EB7470080138531
:1023C00047688D3EB70700612320F4FC0327C4F75C
:1023D000832704FCD8D7032704F8832704FC98DB61
:1023E000032744F8832704FCD8DB032784F88327DA
:1023F00004FC98DF0327C4F8832704FCD8DF0327F5
:1024000004F9832704FCB8C3032744F9832704FC99
:10241000F8C3032784F9832704FCB8C70327C4F94A
:10242000832704FCF8C7032704FA832704FCB8CBEE
:10243000032744FA832704FCF8CB032784FA832775
:1024400004FCB8CF0327C4FA832704FCF8CF032782
:1024500004FB832704FCB8D3032744FB832704FC35
:10246000F8D3032784FB832704FCB8D7B747008041
:102470001385876BEFF01FAC832704FC054798C3D7
:10248000B74700801385876DEFF0DFAA010083272F
:1024900004FC9C43EDFFB747008013858770EFF085
:1024A0007FA9832704FCDC47232EF4F4832704FC54
:1024B0009C4B2320F4F6832704FCDC4B2322F4F608
:1024C000832704FC9C4F2324F4F6832704FCDC4F71
:1024D0002326F4F6832704FC9C532328F4F6832751
:1024E00004FCDC53232AF4F6832704FC9C57232C9A
:1024F000F4F6032544FC8325C4FC032684F7032358
:1025000044F7032E04F70328C4F6832884F68327B0
:1025100044F6032704F68326C4F536C43AC23EC007
:10252000F2871A87B2863746008013060674EF00DA
:10253000307E832744FC3E85EFF0DF9F6A810100F7
:10254000130104F2FE406E44DE444E49BE492E4A59
:102550009E4A0E4BFA5B6A5CDA5C4A5D2D618280B2
:10256000130101DA232E1124232C8124232A912400
:1025700023282125232631252324412523225125C3
:1025800023206125232E7123232C8123232A9123A9
:102590002328A1238014232004FA232204FA2324CD
:1025A00004FA232604FA232804FA232604F823280D
:1025B00004F8232A04F8232C04F8232E04F8B75730
:1025C00000809387C78C8C43D0439447D8479C4B5B
:1025D000232CB4F6232EC4F62320D4F82322E4F8C7
:1025E0002324F4F8B75700809387078E8C43D04399
:1025F0009447D8479C4B2322B4F62324C4F62326C1
:10260000D4F62328E4F6232AF4F6B75700809387FC
:10261000C78C8C43D0439447D8479C4B2328B4F4B1
:10262000232AC4F4232CD4F4232EE4F42320F4F638
:10263000B75700809387478F8C43D0439447D84740
:102640009C4B232EB4F22320C4F42322D4F423245D
:10265000E4F42326F4F4B7570080938787908C43E3
:10266000D0439447D8479C4B2324B4F22326C4F28A
:102670002328D4F2232AE4F2232CF4F2B757008063
:102680009387C7918C43D0439447D8479C4B232AC8
:10269000B4F0232CC4F0232ED4F02320E4F2232220
:1026A000F4F2232004F0232204F0232404F0232650
:1026B00004F0232804F0232604EE232804EE232A22
:1026C00004EE232C04EE232E04EEB75700809387EC
:1026D000C78C8C43D0439447D8479C4B232CB4ECF5
:1026E000232EC4EC2320D4EE2322E4EE2324F4EEA4
:1026F000B7570080938707938C43D0439447D847BC
:102700009C4B2322B4EC2324C4EC2326D4EC2328B2
:10271000E4EC232AF4ECB7570080938747948C436A
:10272000D0439447D8479C4B2328B4EA232AC4EAD1
:10273000232CD4EA232EE4EA2320F4ECB7570080BC
:10274000938787958C43D0439447D8479C4B232E3F
:10275000B4E82320C4EA2322D4EA2324E4EA23268B
:10276000F4EAB75700809387C7968C43D0439447C9
:10277000D8479C4B2324B4E82326C4E82328D4E874
:10278000232AE4E8232CF4E8B757008093870798BE
:102790008C43D0439447D8479C4B232AB4E6232C40
:1027A000C4E6232ED4E62320E4E82322F4E8B75736
:1027B0000080938747998C43D0439447D8479C4BDC
:1027C0002320B4E62322C4E62324D4E62326E4E629
:1027D0002328F4E6B75700809387879A8C43D04329
:1027E0009447D8479C4B2326B4E42328C4E4232AE7
:1027F000D4E4232CE4E4232EF4E4B7570080938739
:10280000C79B8C43D0439447D8479C4B232CB4E2BE
:10281000232EC4E22320D4E42322E4E42324F4E49A
:10282000B75700809387079D8C43D0439447D84780
:102830009C4B2322B4E22324C4E22326D4E223289F
:10284000E4E2232AF4E2B75700809387479E8C4343
:10285000D0439447D8479C4B2328B4E0232AC4E0B4
:10286000232CD4E0232EE4E02320F4E2B7570080A9
:102870009387879F8C43D0439447D8479C4B232E04
:10288000B4DE2320C4E02322D4E02324E4E0232682
:10289000F4E0B75700809387C7A08C43D043944798
:1028A000D8479C4B2324B4DE2326C4DE2328D4DE61
:1028B000232AE4DE232CF4DEB7570080938707A297
:1028C0008C43D0439447D8479C4B232AB4DC232C19
:1028D000C4DC232ED4DC2320E4DE2322F4DEB7473D
:1028E000008013858776EFF0EFE4B70700622322BC
:1028F000F4FC232404FCE1A2832784FC8A07130749
:1029000004FDBA9703A747F9832744FC98C383279C
:1029100084FC8A07130704FDBA9703A787FA832765
:1029200044FCD8C3832784FC8A07130704FDBA97A5
:1029300003A7C7FB832744FC98C7832784FC8A0727
:10294000130704FDBA9703A707FD832744FCD8C7E4
:10295000832784FC8A07130704FDBA9703A7C7F6E9
:10296000832744FC98CB832784FC8A07130704FD44
:10297000BA9703A707F8832744FCD8CB832784FCA6
:102980008A07130704FDBA9703A747F4832744FC7B
:1029900098CF832784FC8A07130704FDBA9703A7FF
:1029A00087F5832744FCD8CF832784FC8A07130745
:1029B00004FDBA9703A747EF832744FC98D38327E6
:1029C00084FC8A07130704FDBA9703A787F08327BF
:1029D00044FCD8D3832784FC8A07130704FDBA97E5
:1029E00003A7C7F1832744FC98D7832784FC8A0771
:1029F000130704FDBA9703A707F3832744FCD8D72E
:102A0000832784FC8A07130704FDBA9703A747EAC4
:102A1000832744FC98DB832784FC8A07130704FD83
:102A2000BA9703A787EB832744FCD8DB832784FC72
:102A30008A07130704FDBA9703A7C7EC832744FC52
:102A400098DF832784FC8A07130704FDBA9703A73E
:102A500007EE832744FCD8DF832744FC032784FC4C
:102A6000B8C3832744FC032784FCF8C3832744FCB2
:102A7000032784FCB8C7832744FC032784FCF8C7DA
:102A8000832744FC032784FCB8CB832744FC03271B
:102A900084FCF8CB832744FC032784FCB8CF83272E
:102AA00044FC032784FCF8CF832744FC9387070664
:102AB0002322F4FC832784FC85072324F4FC0327CA
:102AC00084FC9147E3FAE7E2B74700801385876B00
:102AD000EFF04FC6B70700612320F4FC832704FC06
:102AE00037070062D8C3832704FC154798C3B7474C
:102AF00000801385876DEFF0EFC30100832704FC8E
:102B00009C43EDFFB747008013850778EFF08FC235
:102B1000B70700622322F4FC9307800C232EF4FAFB
:102B20008A873E8D8327C4FBFD17232CF4FA832765
:102B3000C4FB3E8C814C9357DC01939A3C00B3EA72
:102B40005701131A3C008327C4FB3E8B814B9357DC
:102B5000DB0193993B00B3E9370113193B0083274D
:102B6000C4FBBD07918392073301F1401C18938782
:102B70000700232AF4FA232604FC5DA1832F44FBDB
:102B80008322C4FB832744FC83A3C700832744FC20
:102B900083A08700832744FCC443832744FC03A904
:102BA0000700832744FCDC4B032744FC184B832697
:102BB00044FCD44E032644FC104E832544FCCC55E3
:102BC000032544FC0855032844FC032848028328B5
:102BD00044FC83A80802032344FC0323C303032EFD
:102BE00044FC032E8E03832E44FC83AE4E03032F3E
:102BF00044FC032F0F037AD676D472D21AD046CE75
:102C000042CC2ACA2EC832C636C43AC23EC0CA888E
:102C1000268886871E878326C4FC374600801306D5
:102C2000C67996857E85EF00B00E832744FB3E85EE
:102C3000EFF04FB0032544FB8325C4FB832744FCFE
:102C400003A3C705832744FC03AE8705832744FC01
:102C500003A84705832744FC83A80705832744FC72
:102C6000FC47032744FC3847832644FCF4420326F0
:102C700044FC304232C636C43AC23EC0F2871A879C
:102C80008326C4FC3756008013064680EF005008A8
:102C9000832744FB3E85EFF0EFA9032544FB832502
:102CA000C4FB8327C4FC8A07130704FDBA9703A358
:102CB00007E98327C4FC8A07130704FDBA9703AE0C
:102CC000C7E78327C4FC8A07130704FDBA9703A844
:102CD00087E68327C4FC8A07130704FDBA9783A8F5
:102CE00047E58327C4FC8A07130704FDBA9703A7A7
:102CF00007E48327C4FC8A07930604FDB69783A6DE
:102D0000C7E28327C4FC8A07130604FDB29703A613
:102D100087E18327C4FC8A07930404FDA69783A751
:102D200047E03EC632C436C23AC0F2871A878326CD
:102D3000C4FC3756008013064684EF00607D83276D
:102D400044FB3E85EFF00F9F832744FCF84F832719
:102D5000C4FC8A07930604FDB69783A707E96301BD
:102D6000F704032544FB8325C4FB8327C4FC8A079F
:102D7000130704FDBA9703A707E9832744FCFC4F18
:102D80003E88BA870327C4FC9D4637560080130649
:102D90004688EF00E077832744FB3E85EFF08F996C
:102DA000832744FCB84F8327C4FC8A07930604FD9D
:102DB000B69783A7C7E76301F704032544FB832580
:102DC000C4FB8327C4FC8A07130704FDBA9703A733
:102DD000C7E7832744FCBC4F3E88BA870327C4FC5F
:102DE00099463756008013064688EF0060728327A5
:102DF00044FB3E85EFF00F94832744FCF84B832778
:102E0000C4FC8A07930604FDB69783A787E663018F
:102E1000F704032544FB8325C4FB8327C4FC8A07EE
:102E2000130704FDBA9703A787E6832744FCFC4BEE
:102E30003E88BA870327C4FC9546375600801306A0
:102E40004688EF00E06C832744FB3E85EFF08F8ED1
:102E5000832744FCB84B8327C4FC8A07930604FDF0
:102E6000B69783A747E56300F704032544FB832552
:102E7000C4FB8327C4FC8A07130704FDBA9703A782
:102E800047E5832744FCBC4B3E88BA870327C4FC34
:102E9000914637560080130646889D2D832744FBB4
:102EA0003E85EFF02F89832744FCF8478327C4FC35
:102EB0008A07930604FDB69783A707E46300F70427
:102EC000032544FB8325C4FB8327C4FC8A0713071F
:102ED00004FDBA9703A707E4832744FCFC473E8818
:102EE000BA870327C4FC8D463756008013064688F0
:102EF0000525832744FB3E85EFF0CF83832744FCE1
:102F0000B8478327C4FC8A07930604FDB69783A7B6
:102F1000C7E26300F704032544FB8325C4FB832732
:102F2000C4FC8A07130704FDBA9703A7C7E28327E7
:102F300044FCBC473E88BA870327C4FC8946375601
:102F4000008013064688E923832744FB3E85EFE093
:102F50007FFE832744FCF8438327C4FC8A0793063B
:102F600004FDB69783A787E16300F704032544FBBC
:102F70008325C4FB8327C4FC8A07130704FDBA9783
:102F800003A787E1832744FCFC433E88BA870327D5
:102F9000C4FC85463756008013064688952B832748
:102FA00044FB3E85EFE01FF9832744FCB8438327A9
:102FB000C4FC8A07930604FDB69783A747E0630025
:102FC000F704032544FB8325C4FB8327C4FC8A073D
:102FD000130704FDBA9703A747E0832744FCBC43CB
:102FE0003E88BA870327C4FC814637560080130603
:102FF0004688392B832744FB3E85EFE0BFF3B74774
:10300000008013850756EFE0FFF2832744FC938787
:1030100007062322F4FC8327C4FC85072326F4FC3F
:103020000327C4FC9147E3FBE7B46A810100130165
:1030300004DA8320C1250324812583244125032923
:1030400001258329C124032A8124832A4124032BB7
:103050000124832BC123032C8123832C4123032DA3
:103060000123130101268280011106CE22CC00101B
:10307000A30704FE2D2913850135EFE0BFEB0546BC
:1030800081451385C159EFE03FA0EFE03FCA9305AA
:103090009002B7570080138547A3EFF0AF89AA8746
:1030A0002324F4FE032784FE85476315F700EFF021
:1030B0002F8FF1BFEFF0CFCAD9BF1D71A2CE801004
:1030C000B757008003A787BABA878A07BA979A07C3
:1030D000A9872326F4FEB757008003A787BABA87CB
:1030E0009207998F9207A9872324F4FE8327C4FEB1
:1030F0003307F04083A70140938601DB8A07B69728
:103100009C433307F70283A70140B756008093869C
:1031100006BB8A07B6979443832784FEB387F602DB
:10312000B307F740BD872322F4FE8327C4FE33078D
:10313000F04083A70140B7560080938606BB8A07FC
:10314000B6979C433307F70283A70140938601DBC0
:103150008A07B6979443832784FEB387F602BA970B
:10316000BD872320F4FE83A70140138701DB8A0774
:10317000BA9798438327C4FE3307F70283A7014019
:10318000B7560080938606BB8A07B6979443832779
:1031900084FEB387F602B307F740BD87232EF4FC05
:1031A00083A7014037570080130707BB8A07BA97E8
:1031B00098438327C4FE3307F70283A70140938611
:1031C00001DB8A07B6979443832784FEB387F60210
:1031D000BA97BD87232CF4FC8327C4FE3307F04045
:1031E00083A70140938601DB8A07B6979C43330788
:1031F000F70283A70140B7560080938606BB8A0773
:10320000B6979443832784FEB387F602BA97BD87A7
:10321000232AF4FC8327C4FE3307F04083A7014030
:10322000B7560080938606BB8A07B6979C43330740
:10323000F70283A70140938601DB8A07B697944380
:10324000832784FEB387F602B307F740BD872328A0
:10325000F4FC83A70140138701DB8A07BA979843E0
:103260008327C4FE3307F70283A70140B7560080C7
:10327000938606BB8A07B6979443832784FEB38759
:10328000F602BA97BD872326F4FC83A7014037577F
:103290000080130707BB8A07BA9798438327C4FEA9
:1032A0003307F70283A70140938601DB8A07B697AD
:1032B0009443832784FEB387F602B307F740BD87A4
:1032C0002324F4FC832744FE938707102322F4FC75
:1032D000832704FE938707102320F4FC8327C4FD73
:1032E00093870710232EF4FA832784FD9387071012
:1032F000232CF4FA832744FD93870710232AF4FA3A
:10330000832704FD938707102328F4FA8327C4FC3E
:10331000938707102326F4FA832784FC93870710EA
:103320002324F4FAB7070460032744FC420798C338
:10333000B70704609107032704FC420798C3B70747
:103340000460A1070327C4FB420798C3B7070460C2
:10335000B107032784FB420798C3032744FB832755
:1033600044FCB307F74093960701B7070460C10711
:103370001307001E33C7E60298C3032704FB832705
:1033800004FCB307F74093960701B7070460D10721
:103390001307001E33C7E60298C30327C4FA832726
:1033A000C4FBB307F74093960701B7070460E10732
:1033B0001307001E33C7E60298C3032784FA832746
:1033C00084FBB307F74093960701B7070460F10742
:1033D0001307001E33C7E60298C383A70140138773
:1033E000170023A0E14003A7014093078016631450
:1033F000F70023A0014083C7C13F85EBB75700808A
:1034000083A787BA13870701B757008023A4E7BAB9
:10341000B757008003A787BA8567938707C063DA29
:10342000E7020547238EE13E2DA0B757008083A712
:1034300087BA138707FFB757008023A4E7BAB757A7
:10344000008003A787BA9307F01F63C4E700238EA9
:10345000013E0100764425618280411106C622C4E6
:103460000008054685451385C159EFE0EFE183A7C4
:10347000813F1387170023ACE13EEFF01FC40146E4
:1034800085451385C159EFE02FE00100B240224489
:1034900041018280411106C622C400081385C14241
:1034A000EFD07FD30100B24022444101828041111C
:1034B00006C622C40008EFD00FDC0946B7350070FD
:1034C0001385C159EFE06FCA81460546B7150070F4
:1034D0001385C142EFD05F9385466946B7050070FA
:1034E00013854142EFD0CFE7EFE01F9F0145EFE0AA
:1034F0007FA0EFD00FD70100B2402244410182806B
:103500002A8311C62300B3007D16050365FE828061
:1035100035713ECBA6DA36C73AC942CD46CF9717AA
:1035200000009387E76886DEA2DCCAD8844363DCA8
:1035300005009307B0089CC07D55F6506654D654DC
:1035400046590D61828093078020231AF1002AC416
:103550002ACC814799C19387F5FF7D592E84740148
:103560002C0026853EC83ECE231B210136C25124A5
:10357000635525019307B0089CC061D0A247238002
:10358000070065BF35713ECBB707008093C7F7FFD3
:103590003ECE3EC8C1779387872032C536C73AC929
:1035A00042CD46CF3ECA97170000938767602AC472
:1035B0002ACC884334012E862C0086DE36C2152C98
:1035C000A24723800700F6500D618280411122C678
:1035D000AA8F2E88171300001303D348130718006F
:1035E0008347F7FF338567008348050093F8880019
:1035F000639708081305D0026395A708834707005F
:10360000054E13072800FDC241456392A60213052B
:103610000003639EA700834707001305800593F707
:10362000F70D6390A70C83471700C14609073703BE
:10363000008063140E001343F3FFB372D30281487A
:103640000145A543654F7D54B35ED302138807FD42
:1036500063E40305C28763DFD704638E8800FD58E7
:1036600063EBAE006394AE0063C7F2008548338815
:10367000A6023385070105078347F7FFC1BF3A88D4
:10368000B1BF1305B0026384A700014EADBF8347ED
:10369000070013072800D5BF1388F7FB63650F01E8
:1036A000938797FC4DBF1388F7F963650F019387E4
:1036B00097FA55B7FD57639BF8009307200223A0A4
:1036C000FF001A8519EA32444101828063040E002A
:1036D0003305A0406DDA638408009305F7FF0CC240
:1036E000DDB793070003A1F6A14691B713050003C8
:1036F000E383A7F2A94625BF971700009387474B9E
:10370000B2862E86AA858843D1B501114AC803A97D
:10371000850022CC52C45AC006CE26CA4EC656C216
:103720002E84328B368A63ED260983D7C50013F7C2
:10373000074849C704408C495848AA8AB389B4400D
:103740008D44B384E4020947B3C4E402138716002E
:103750004E9763F3E400BA8493F70740C9C3A68584
:103760005685EF00007B2A890DE5B14723A0FA00BA
:103770008357C4007D5593E707042316F400F240F5
:103780006244D2444249B249224A924A024B0561FC
:1037900082800C484E86712D8357C40093F7F7B78B
:1037A00093E707082316F4002328240144C84E9900
:1037B000B38434412320240104C4528963732A0151
:1037C000528908404A86DA8541251C440145B38761
:1037D00027411CC41C403E99232024014DB7268656
:1037E0005685EF00E07F2A8961F10C485685412516
:1037F000ADBF83D7C500717126D34AD14ECF06D74E
:1038000022D552CD56CB5AC95EC762C566C393F75F
:103810000708AA892E89B284B1C39C49A1E3930504
:10382000000436C6FD252320A9002328A900B2469E
:1038300015E1B14723A0F9007D55BA502A549A5496
:103840000A59FA496A4ADA4A4A4BBA4B2A4C9A4C04
:103850004D61828093070004232AF9009307000238
:10386000A30CF1029307000302DA230DF10236CE16
:10387000930B5002971A0000938A0A2F054C294B8C
:1038800026848347040099C3639B7709B30C944053
:10389000638D0C00E6862686CA854E85BD35FD57AC
:1038A0006301F51AD256E69636DA83470400638A36
:1038B0000718FD579304140002D002D63ED202D45A
:1038C000A301010682DC83C5040015465685A923A1
:1038D00013841400825731E513F7070109C7130752
:1038E0000002A301E10613F7870009C71307B0021E
:1038F000A301E10683C604001307A002638BE6025E
:10390000B2572684814625460347040093051400D8
:10391000130707FD6374E6068DC63ED61DA0050499
:103920008DB7330555413315AC00C98F3ED0A28405
:1039300059BF724793064700184336CE63490702C2
:103940003AD6034704009307E002631FF7040347D6
:1039500014009307A002631BF702F24709041387C0
:1039600047009C433ACE63C107023ED235A83307D5
:10397000E04093E727003AD63ED0E1B7B38767032C
:1039800085462E84BA9749B7FD57C5B7050402D2BC
:103990008146814725460347040093051400130719
:1039A00007FD6376E606F1F2834504000D46171520
:1039B00000001305E51B8D2111CD9717000093879B
:1039C000271B1D8D93070004B397A700025505041C
:1039D0005D8D2AD083450400194617150000130594
:1039E000651993041400230CB1023D2125C597C726
:1039F000FF7F9387276195E70257F24713770710F8
:103A000009CF91073ECED257D2973EDA95BDB38704
:103A1000670385462E84BA97BDBF9D07E19BA1072A
:103A2000D5B7780897060000938666CE4A860C10B4
:103A30004E8597000000E7000000FD572A8AE31436
:103A4000F5FC8357C9007D5593F70704E39707DE1C
:103A50005255E5B3780897060000938646CB4A8610
:103A60000C104E85012AD1BF797156CA9C49BA8A79
:103A7000984522D426D24ECE52CC06D64AD05AC829
:103A80005EC6AA892E84B284368A63D3E700BA87D9
:103A90009CC00347340419C385079CC01C4093F79E
:103AA000070281C79C4089079CC003290400137941
:103AB0006900631A0900130B9401FD5B5C44984094
:103AC000998F634CF9041C408346340493F7070232
:103AD000B336D000A5EB13063404D2854E85829A06
:103AE000FD576303F5041C4011469840998B5444DC
:103AF00081446397C700B384E64063D304008144E4
:103B00001C4418486354F700998FBE940149690416
:103B10007D5B63982405014509A885465A86D285B0
:103B20004E85829A631E75017D55B250225492547F
:103B30000259F249624AD24A424BB24B45618280F5
:103B40000509ADBF3307D40013060003A301C70462
:103B50000347540493871600A2978906A381E704BC
:103B60009DBF85462286D2854E85829AE30E65FBEF
:103B7000050945B7797122D426D24AD04ECE06D651
:103B800052CC56CA5AC8B68983C685019307E00647
:103B90003289AA842E84138635046381F61E63E27B
:103BA000D706930730066382F60A63EDD700638B6E
:103BB000061E930780056387F616930A24042301E3
:103BC000D40469A8930740066386F600930790061D
:103BD000E395F6FE1C40084393F60708930545005D
:103BE000C1C21C410CC363D807001307D002B3073E
:103BF000F040A301E40497160000938626F82947B5
:103C000065A0930730076383F61A63EFD700930725
:103C1000F006638FF60493070007E390F6FA9C41E1
:103C200093E707029CC109A8930750076382F60433
:103C300093078007E393F6F893078007A302F40441
:103C4000971600009386C6F4E5A01C43938A2504CA
:103C5000938647009C4314C32381F5048547B5A28E
:103C600093F607041C410CC3BDDEC207C187A5BF84
:103C70000C401C4313F80508138547006305080032
:103C800008C39C4339A093F5050408C3FDD983D725
:103C900007001307F006638BE60C97160000938667
:103CA000E6ED2947A30104044C400CC463C505009C
:103CB00008406D9908C099E3B28A91CDB28AB3F5F4
:103CC000E702FD1AB69583C505002380BA00B3D577
:103CD000E70263F3E70AA147631EF7001C40858BE8
:103CE00091CB58401C4863C7E70093070003A38F9C
:103CF000FAFEFD1A3306564110C84E87CA86700078
:103D0000A2852685EFF05FD67D5A6314450D7D555B
:103D1000B250225492540259F249624AD24A424B5A
:103D200045618280A382D50497160000938606E53C
:103D30000C40084313F805081C41110563000802F4
:103D400008C313F7150001C793E505020CC04147EE
:103D5000B1FB0C4093F5F5FD0CC0A9B713F80504B1
:103D600008C3E30008FEC207C183E1BF9716000045
:103D70009386C6E021473DB7AE8791B794411C4377
:103D8000CC4913F80608138547006306080008C3EA
:103D90009C438CC301A808C393F606049C43F5DA40
:103DA0002390B70023280400B28A81BF1C43D0416E
:103DB00081459386470014C383AA07005685A92826
:103DC00001C53305554148C05C401CC8A30104042B
:103DD0002DB714485686CA8526858299E30945F38E
:103DE0001C40898B8DE7B2474844E353F5F23E858A
:103DF00005B785465686CA8526858299E30965F109
:103E0000050A5C443247998FE345FAFEE9BF014A4F
:103E1000930A94017D5BF5B793F5F50F2A96631429
:103E2000C5000145828083470500E38DB7FE050587
:103E3000FDB72A8309CA83830500230073007D161A
:103E4000050385056DFA828015C22A83854663675E
:103E5000B500FD561307F6FF3A93BA958383050024
:103E6000230073007D163693B6956DFA8280CDC11E
:103E700083A7C5FF411122C406C626C21384C5FF0D
:103E800063D307003E94AA84C12A938741409C4390
:103E900099EB2322040023A281402244B2402685CC
:103EA000924441015DAA637EF40014403307D400BC
:103EB0006396E7009843DC43369718C05CC0E1BFC7
:103EC000BA87D84319C3E37DE4FE94433386D70011
:103ED000631F86001040B29694C33386D700E31E5A
:103EE000C7FA10435843B29694C3D8C37DB76375DD
:103EF000C400B1479CC055B71040B306C400631658
:103F0000D70014435843B29614C058C0C0C371B709
:103F10008280011126CA93843500F19806CE22CC06
:103F20004AC84EC6A104B14763F1F404B14463E04A
:103F3000B4042A8915229387414098433A8431E09A
:103F4000938781409C4391E781454A85CD2023A4F6
:103F5000A140A6854A85E128FD5963173507B14779
:103F60002320F9004A85D52829A0E3D204FCB147D3
:103F70001CC10145F2406244D2444249B249056144
:103F800082801C40858F63CE0702AD4663F6F60043
:103F90001CC03E9404C031A05C406312870223A27F
:103FA000F1404A855D281305B400930744006199E8
:103FB0003307F54061D33A94898F1CC065BF5CC359
:103FC000CDB722874040A5BF130435007198E303A5
:103FD00085FCB305A4404A859928E31D35FB41B70C
:103FE00099E1B2853DB7011122CC06CE26CA4AC856
:103FF0004EC6328419EAA53D0149F24062444A8521
:10400000D2444249B24905618280AE84AA89B9206E
:104010002689E37485FEA2854E85E53D2A8971DDFA
:10402000A68522863935A6854E859135F9B7411189
:1040300022C42A842E8523A0014206C6EFC09F9B7E
:10404000FD576317F500938701429C4391C31CC041
:10405000B2402244410182808280828083A7C5FFD2
:104060001385C7FF63D50700AA959C413E958280C2
:1040700068656C6C6F00000022120080A61800803A
:10408000A6180080A6180080A6180080A618008038
:10409000A6180080A618008022120080A6180080B2
:1040A000A6180080A6180080A6180080A618008018
:1040B000A6180080A6180080FC120080A6180080B8
:1040C000A6180080A6180080A6180080A6180080F8
:1040D000A6180080A6180080D2120080A6180080C2
:1040E000A6180080A6180080A6180080A6180080D8
:1040F000A6180080A6180080FC120080A618008078
:10410000A6180080A6180080A6180080A6180080B7
:10411000A6180080A6180080BC130080A618008096
:10412000A6180080A6180080A6180080A618008097
:10413000A6180080A6180080BC120080A618008077
:10414000A6180080A6180080A6180080A618008077
:10415000A6180080A6180080E6130080A61800802C
:10416000A6180080A6180080A6180080A618008057
:10417000A6180080A61800805C140080A618008095
:10418000A6180080A6180080A6180080A618008037
:10419000A6180080A618008086140080A61800804B
:1041A000A6180080A6180080A6180080A618008017
:1041B000A6180080A6180080DC140080A6180080D5
:1041C000A6180080A6180080A6180080A6180080F7
:1041D000A6180080A6180080A6150080A6180080EA
:1041E000A6180080A6180080A6180080A6180080D7
:1041F000A6180080A61800809C150080A6180080D4
:10420000A6180080A6180080A6180080A6180080B6
:10421000A6180080A6180080A6150080A6180080A9
:10422000A6180080A6180080A6180080A618008096
:10423000A6180080A61800809C150080A618008093
:10424000A6180080A6180080A6180080A618008076
:10425000A6180080A6180080FE150080A618008011
:10426000A6180080A6180080A6180080A618008056
:10427000A6180080A618008058150080A618008097
:10428000A6180080A6180080A6180080A618008036
:10429000A6180080A6180080FE150080A6180080D1
:1042A000A6180080A6180080A6180080A618008016
:1042B000A6180080A618008058150080A618008057
:1042C000A6180080A6180080A6180080A6180080F6
:1042D000A6180080A618008084160080A61800800A
:1042E000A6180080A6180080A6180080A6180080D6
:1042F000A6180080A618008082170080A6180080EB
:10430000A6180080A6180080A6180080A6180080B5
:10431000A6180080A618008082170080A6180080CA
:10432000A6180080A6180080A6180080A618008095
:10433000A6180080A618008082170080A6180080AA
:10434000A6180080A6180080A6180080A618008075
:10435000A6180080A61800805C180080A6180080AF
:10436000A6180080A6180080A6180080A618008055
:10437000A6180080A61800805C180080A61800808F
:10438000A6180080A6180080A6180080A618008035
:10439000A6180080A6180080A6180080A618008025
:1043A000A6180080A6180080A6180080A618008015
:1043B000A6180080A618008056170080A618008056
:1043C000A6180080A6180080A6180080A6180080F5
:1043D000A6180080A6180080F4180080F90041108B
:1043E00098039AE09C309D61A2A4A3A4E0D0F900B8
:1043F000DE109400A140BA60D6C015001638170030
:10440000D03018004080480049A84C00550056089C
:10441000AF060000414456373531312048444D49FC
:10442000205472616E736D697474657220496E698F
:104430007469616C697A6174696F6E0D0A000000BD
:10444000486F74706C756720284850442920737435
:1044500061746520636865636B28426C6F636B6988
:104460006E67290D0A00000048444D492053696ECB
:104470006B2044657465637465642C204850442047
:104480003D20486967680D0A000000004144563726
:104490003531312043686970205265766973696FE0
:1044A0006E2028416464726573732030783030293F
:1044B0003A3078252E32780D0A0000002A2A2A4345
:1044C0006F756C64206E6F74207265616420414466
:1044D00056373531312052656769737465722A2AFF
:1044E0002A0D0A004144563735313120496E707526
:1044F0007420564943202331202856474120363422
:10450000307834383020343A332920646574656358
:104510007465640D0A000000556E657870656374FB
:104520006564204144563735313120496E707574C9
:1045300020564943204465746563746564203D20BA
:104540002325640D0A0000000D0A20496E76616C77
:10455000696420696E7075742E0D0A2000000000D9
:104560000D0A0000456E7465722041303A2000004B
:10457000456E7465722041313A200000456E7465C5
:10458000722041323A200000456E7465722041333A
:104590003A200000456E7465722042303A200000D7
:1045A000456E7465722042313A200000456E746594
:1045B000722043303A200000456E7465722043310A
:1045C0003A200000456E7465722044303A200000A5
:1045D000456E7465722044313A200000456E746562
:1045E000722044323A200000456E746572204433D4
:1045F0003A200000456E7465722045303A20000074
:10460000456E7465722045313A200000456E746530
:10461000722045323A200000456E746572204533A1
:104620003A20000053656E64696E672074686520E7
:10463000696E707574732028686578293A0D0A418F
:104640003A2025782025782025782025780D0A42E3
:104650003A2025782025780D0A433A202578202510
:10466000780D0A443A2025782025782025782025C1
:10467000780D0A453A2025782025782025782025B0
:10468000780D0A0057726974696E6720696E7075DB
:10469000747320746F20536D617274484C532061A1
:1046A0006363656C657261746F72206F76657220EA
:1046B0004158490D0A0000005374617274696E67B5
:1046C00020536D617274484C5320616363656C655F
:1046D0007261746F720D0A0057616974696E6720A8
:1046E000666F7220536D617274484C53206163632E
:1046F000656C657261746F7220746F2066696E6993
:1047000073680D0A0000000052656164696E6720DD
:10471000726573756C742066726F6D20536D617273
:1047200074484C5320616363656C657261746F7289
:10473000206F766572204158493A0D0A000000004A
:10474000526573756C742028686578293A2025783D
:104750002025782025782025782025782025782088
:1047600025782025780D0A0057726974696E6720D4
:10477000696E7075747320746F204444520D0A0082
:1047800052656164696E6720726573756C7473201D
:1047900066726F6D204444520D0A0000496E7075B8
:1047A00074732028686578292066726F6D204444F0
:1047B0005220666F722072756E2025643A0D0A4190
:1047C0003A2025782025782025782025780D0A4262
:1047D0003A2025782025780D0A433A20257820258F
:1047E000780D0A443A202578202578202578202540
:1047F000780D0A453A20257820257820257820252F
:10480000780D0A00526573756C74202868657829E4
:104810002066726F6D2044445220666F722072755C
:104820006E2025643A0D0A257820257820257820E9
:1048300025782025782025782025782025780D0AD0
:1048400000000000457870656374656420726573CC
:10485000756C7420286865782920666F72207275DF
:104860006E2025643A0D0A257820257820257820A9
:1048700025782025782025782025782025780D0A90
:10488000000000004D69736D617463686564207297
:104890006573756C7420286865782920666F7220AE
:1048A000726573756C742025642072756E202564A2
:1048B0003A0D0A45787065637465643A2025782C52
:1048C00020476F743A2025780D0A0000020000008E
:1048D00000000000000000000200000002000000D4
:1048E000EA16B04CA086010040420F00EA16B04C18
:1048F000EA16B04CEA16B04C237A080063C554009F
:10490000EA16B04CEA16B04C0000000000000000AF
:104910000000000067452361674523710100000026
:10492000A00816004056DC00000000800000008057
:10493000EA16B04C0A00000064000000EA16B04C11
:10494000EA16B04C000000800000000000000000EB
:1049500067452371674523710000000000000000D7
:1049600000000000EFCDAB89EFCDAB8900000080E7
:104970000000000000000000FFFFFFFFFFFFFFFF3F
:104980000000000078E4F505B8EC9A3BFEFFFFFF5D
:10499000FEFFFFFFFFFFFFFF000000000000000020
:1049A000C5092508A57A0C0BFFFFFFFF00000000DA
:1049B00000000000317A46DD48E68740FFFFFFFF38
:1049C000000000000000000072A035589A172A1954
:1049D000FFFFFFFF0000000000000000FDBAEC2F09
:1049E000FDBAECAF020000C00000000000000000B3
:1049F0008E4024DBE1D7FFCDEA16B04C287A0800C0
:104A000076DB54006DF6F1AFDBF7BCE40400004048
:104A10003BD9DDA6E9889BD29D555C039D555CA3DF
:104A2000D42D6099E04CD5FE40B3EAD0EA16B04CE4
:104A3000EA16B04C456E746572206D6F646520286F
:104A40003120666F722073696E676C652C2032208E
:104A5000666F72206275727374293A20000000003C
:104A6000002020202020202020202828282828203E
:104A70002020202020202020202020202020202036
:104A8000208810101010101010101010101010109E
:104A9000100404040404040404040410101010108E
:104AA0001010414141414141010101010101010158
:104AB00001010101010101010101010110101010AA
:104AC000101042424242424202020202020202022A
:104AD000020202020202020202020202101010107E
:104AE00020000000000000000000000000000000A6
:104AF00000000000000000000000000000000000B6
:104B000000000000000000000000000000000000A5
:104B10000000000000000000000000000000000095
:104B20000000000000000000000000000000000085
:104B30000000000000000000000000000000000075
:104B40000000000000000000000000000000000065
:104B50000000000000000000000000000000000055
:104B600000000000232D302B20000000686C4C005A
:104B70006566674546470000303132333435363795
:104B80003839414243444546000000003031323359
:104B90003435363738396162636465660000000079
:104BA00050590080CC57008000040000245700803A
:104BB000000000003B02000077040000B206000085
:104BC000ED080000270B0000610D0000990F0000A8
:104BD000D0110000061400003A1600006C18000006
:104BE0009C1A0000CB1C0000F71E000020210000D2
:104BF000482300006C2500008D270000AC29000030
:104C0000C72B0000DF2D0000F32F0000033200004F
:104C10000F340000183600001C3800001C3A000059
:104C2000173C00000E3E000000400000EC41000078
:104C3000D4430000B6450000934700006A490000D5
:104C40003C4B0000084D0000CD4E00008D50000090
:104C500046520000F9530000A65500004B570000D3
:104C6000EA580000825A0000135C00009C5D0000BE
:104C70001F5F00009A6000000D6200007963000071
:104C8000DD640000396600008D670000D96800000F
:104C90001D6A0000596B00008C6C0000B76D0000AD
:104CA000D96E0000F36F0000047100000C72000068
:104CB0000B73000001740000EF740000D375000056
:104CC000AD7600007F77000047780000067900008D
:104CD000BC790000687A00000A7B0000A37B00001A
:104CE000327C0000B87C0000337D0000A57D000010
:104CF0000E7E00006C7E0000C17E00000B7F000075
:104D00004C7F0000837F0000B07F0000D37F000055
:104D1000EC7F0000FB7F000000800000FB7F0000B4
:104D2000EC7F0000D37F0000B07F0000837F000095
:104D30004C7F00000B7F0000C17E00006C7E0000F5
:104D40000E7E0000A57D0000337D0000B87C0000D1
:104D5000327C0000A37B00000A7B0000687A000020
:104D6000BC79000006790000477800007F770000DA
:104D7000AD760000D3750000EF74000001740000F0
:104D80000B7300000C72000004710000F36F000050
:104D9000D96E0000B76D00008C6C0000596B0000EC
:104DA0001D6A0000D96800008D67000039660000A8
:104DB000DD640000796300000D6200009A6000006D
:104DC0001F5F00009C5D0000135C0000825A000021
:104DD000EA5800004B570000A6550000F9530000A8
:104DE000465200008D500000CD4E0000084D0000DE
:104DF0003C4B00006A49000093470000B6450000A4
:104E0000D4430000EC410000004000000E3E0000D2
:104E1000173C00001C3A00001C3800001836000047
:104E20000F34000003320000F32F0000DF2D0000DC
:104E3000C72B0000AC2900008D2700006C25000066
:104E40004823000020210000F71E0000CB1C0000BA
:104E50009C1A00006C1800003A16000006140000AE
:104E6000D0110000990F0000610D0000270B000019
:104E7000ED080000B2060000770400003B020000CD
:104E800000000000C4FDFFFF88FBFFFF4DF9FFFF9E
:104E900012F7FFFFD8F4FFFF9EF2FFFF66F0FFFF5F
:104EA0002FEEFFFFF9EBFFFFC5E9FFFF93E7FFFFE1
:104EB00063E5FFFF34E3FFFF08E1FFFFDFDEFFFFF5
:104EC000B7DCFFFF93DAFFFF72D8FFFF53D6FFFF77
:104ED00038D4FFFF20D2FFFF0CD0FFFFFCCDFFFF37
:104EE000F0CBFFFFE7C9FFFFE3C7FFFFE3C5FFFF0D
:104EF000E8C3FFFFF1C1FFFF00C0FFFF13BEFFFFCC
:104F00002BBCFFFF49BAFFFF6CB8FFFF95B6FFFF50
:104F1000C3B4FFFFF7B2FFFF32B1FFFF72AFFFFF75
:104F2000B9ADFFFF06ACFFFF59AAFFFFB4A8FFFF12
:104F300015A7FFFF7DA5FFFFECA3FFFF63A2FFFF07
:104F4000E0A0FFFF659FFFFFF29DFFFF869CFFFF34
:104F5000229BFFFFC699FFFF7298FFFF2697FFFF76
:104F6000E295FFFFA694FFFF7393FFFF4892FFFFB8
:104F70002691FFFF0C90FFFFFB8EFFFFF38DFFFFDD
:104F8000F48CFFFFFE8BFFFF108BFFFF2C8AFFFFCF
:104F90005289FFFF8088FFFFB887FFFFF986FFFF78
:104FA0004386FFFF9785FFFFF584FFFF5C84FFFFCB
:104FB000CD83FFFF4783FFFFCC82FFFF5A82FFFFB5
:104FC000F181FFFF9381FFFF3E81FFFFF480FFFF30
:104FD000B380FFFF7C80FFFF4F80FFFF2C80FFFF2F
:104FE0001380FFFF0480FFFF0080FFFF0480FFFFAE
:104FF0001380FFFF2C80FFFF4F80FFFF7C80FFFFAF
:10500000B380FFFFF480FFFF3E81FFFF9381FFFF2E
:10501000F181FFFF5A82FFFFCC82FFFF4783FFFF32
:10502000CD83FFFF5C84FFFFF584FFFF9785FFFFC3
:105030004386FFFFF986FFFFB887FFFF8088FFFFE9
:105040005289FFFF2C8AFFFF108BFFFFFE8BFFFFB3
:10505000F48CFFFFF38DFFFFFB8EFFFF0C90FFFF33
:105060002691FFFF4892FFFF7393FFFFA694FFFF77
:10507000E295FFFF2697FFFF7298FFFFC699FFFF9B
:10508000229BFFFF869CFFFFF29DFFFF659FFFFFB6
:10509000E0A0FFFF63A2FFFFECA3FFFF7DA5FFFFE2
:1050A00015A7FFFFB4A8FFFF59AAFFFF06ACFFFF3B
:1050B000B9ADFFFF72AFFFFF32B1FFFFF7B2FFFFE5
:1050C000C3B4FFFF95B6FFFF6CB8FFFF49BAFFFFFF
:1050D0002BBCFFFF13BEFFFF00C0FFFFF1C1FFFFAE
:1050E000E8C3FFFFE3C5FFFFE3C7FFFFE7C9FFFF1B
:1050F000F0CBFFFFFCCDFFFF0CD0FFFF20D2FFFF66
:1051000038D4FFFF53D6FFFF72D8FFFF93DAFFFFBB
:10511000B7DCFFFFDFDEFFFF08E1FFFF34E3FFFF47
:1051200063E5FFFF93E7FFFFC5E9FFFFF9EBFFFF33
:105130002FEEFFFF66F0FFFF9EF2FFFFD8F4FFFFA8
:1051400012F7FFFF4DF9FFFF88FBFFFFC4FDFFFFD4
:1051500000800000FB7F0000EC7F0000D37F000098
:10516000B07F0000837F00004C7F00000B7F0000B9
:10517000C17E00006C7E00000E7E0000A57D000058
:10518000337D0000B87C0000327C0000A37B00006F
:105190000A7B0000687A0000BC79000006790000F4
:1051A000477800007F770000AD760000D3750000DF
:1051B000EF740000017400000B7300000C7200001B
:1051C00004710000F36F0000D96E0000B76D00009D
:1051D0008C6C0000596B00001D6A0000D96800004B
:1051E0008D67000039660000DD640000796300000F
:1051F0000D6200009A6000001F5F00009C5D0000CF
:10520000135C0000825A0000EA5800004B5700006F
:10521000A6550000F9530000465200008D500000D2
:10522000CD4E0000084D00003C4B00006A490000D4
:1052300093470000B6450000D4430000EC41000055
:10524000004000000E3E0000173C00001C3A000029
:105250001C380000183600000F3400000332000034
:10526000F32F0000DF2D0000C72B0000AC29000049
:105270008D2700006C25000048230000202100003D
:10528000F71E0000CB1C00009C1A00006C180000E8
:105290003A16000006140000D0110000990F00001B
:1052A000610D0000270B0000ED080000B2060000B1
:1052B000770400003B02000000000000C4FDFFFF77
:1052C00088FBFFFF4DF9FFFF12F7FFFFD8F4FFFF48
:1052D0009EF2FFFF66F0FFFF2FEEFFFFF9EBFFFFEF
:1052E000C5E9FFFF93E7FFFF63E5FFFF34E3FFFF3F
:1052F00008E1FFFFDFDEFFFFB7DCFFFF93DAFFFF10
:1053000072D8FFFF53D6FFFF38D4FFFF20D2FFFF34
:105310000CD0FFFFFCCDFFFFF0CBFFFFE7C9FFFF85
:10532000E3C7FFFFE3C5FFFFE8C3FFFFF1C1FFFFD6
:1053300000C0FFFF13BEFFFF2BBCFFFF49BAFFFFFA
:105340006CB8FFFF95B6FFFFC3B4FFFFF7B2FFFFD6
:1053500032B1FFFF72AFFFFFB9ADFFFF06ACFFFF39
:1053600059AAFFFFB4A8FFFF15A7FFFF7DA5FFFF08
:10537000ECA3FFFF63A2FFFFE0A0FFFF659FFFFF1D
:10538000F29DFFFF869CFFFF229BFFFFC699FFFF58
:105390007298FFFF2697FFFFE295FFFFA694FFFF9D
:1053A0007393FFFF4892FFFF2691FFFF0C90FFFFD2
:1053B000FB8EFFFFF38DFFFFF48CFFFFFE8BFFFFE3
:1053C000108BFFFF2C8AFFFF5289FFFF8088FFFFB1
:1053D000B887FFFFF986FFFF4386FFFF9785FFFF32
:1053E000F584FFFF5C84FFFFCD83FFFF4783FFFF52
:1053F000CC82FFFF5A82FFFFF181FFFF9381FFFF05
:105400003E81FFFFF480FFFFB380FFFF7C80FFFF42
:105410004F80FFFF2C80FFFF1380FFFF0480FFFF02
:105420000080FFFF0480FFFF1380FFFF2C80FFFF41
:105430004F80FFFF7C80FFFFB380FFFFF480FFFF02
:105440003E81FFFF9381FFFFF181FFFF5A82FFFF43
:10545000CC82FFFF4783FFFFCD83FFFF5C84FFFF0C
:10546000F584FFFF9785FFFF4386FFFFF986FFFF67
:10547000B887FFFF8088FFFF5289FFFF2C8AFFFF5C
:10548000108BFFFFFE8BFFFFF48CFFFFF38DFFFF00
:10549000FB8EFFFF0C90FFFF2691FFFF4892FFFF5E
:1054A0007393FFFFA694FFFFE295FFFF2697FFFF90
:1054B0007298FFFFC699FFFF229BFFFF869CFFFFAC
:1054C000F29DFFFF659FFFFFE0A0FFFF63A2FFFFCC
:1054D000ECA3FFFF7DA5FFFF15A7FFFFB4A8FFFF0B
:1054E00059AAFFFF06ACFFFFB9ADFFFF72AFFFFF88
:1054F00032B1FFFFF7B2FFFFC3B4FFFF95B6FFFF66
:105500006CB8FFFF49BAFFFF2BBCFFFF13BEFFFFC4
:1055100000C0FFFFF1C1FFFFE8C3FFFFE3C5FFFFCE
:10552000E3C7FFFFE7C9FFFFF0CBFFFFFCCDFFFFA5
:105530000CD0FFFF20D2FFFF38D4FFFF53D6FFFF70
:1055400072D8FFFF93DAFFFFB7DCFFFFDFDEFFFF5C
:1055500008E1FFFF34E3FFFF63E5FFFF93E7FFFF91
:10556000C5E9FFFFF9EBFFFF2FEEFFFF66F0FFFF3E
:105570009EF2FFFFD8F4FFFF12F7FFFF4DF9FFFF88
:1055800088FBFFFFC4FDFFFFFFFFFFFF3B020000A2
:1055900077040000B2060000ED080000270B0000B1
:1055A000610D0000990F0000D011000006140000EA
:1055B0003A1600006C1800009C1A0000CB1C00007A
:1055C000F71E000020210000482300006C25000089
:1055D0008D270000AC290000C72B0000DF2D000044
:1055E000F32F0000033200000F34000018360000D3
:1055F0001C3800001C3A0000173C00000E3E000062
:1056000000400000EC410000D4430000B64500001B
:10561000934700006A4900003C4B0000084D000021
:10562000CD4E00008D50000046520000F95300009E
:10563000A65500004B570000EA580000825A0000AF
:10564000135C00009C5D00001F5F00009A6000007A
:105650000D62000079630000DD640000396600001F
:105660008D670000D96800001D6A0000596B0000BA
:105670008C6C0000B76D0000D96E0000F36F000065
:10568000047100000C7200000B7300000174000034
:10569000EF740000D3750000AD7600007F77000046
:1056A0004778000006790000BC790000687A0000A5
:1056B0000A7B0000A37B0000327C0000B87C000065
:1056C000337D0000A57D00000E7E00006C7E000092
:1056D000C17E00000B7F00004C7F0000837F000034
:1056E000B07F0000D37F0000EC7F0000FB7F000054
:1056F0000D0A0D0A20536D617274484C5320547288
:1057000061696E696E6720332076312E3020323029
:1057100032312D30352D3230204D4348500D0A0D99
:105720000A0000000000000000000000000000006F
:105730000000000000000000000000000000000069
:105740000000000000000000000000000000000059
:105750000000000000000000000000000000000049
:105760000000000000000000000000000000000039
:105770000000000000000000000000000000000029
:105780000000000000000000000000000000000019
:040000058000000077
:00000001FF
