:100000006F00C0006F0000006F00C0029702000088
:10001000938282027390523073500030735040309C
:1000200097310000938101BA1731000013018161FB
:100030006F000013130101F8232011002322210077
:10004000232431002326410023285100232A610064
:10005000232C7100232E8100232091022322A10250
:100060002324B1022326C1022328D102232AE1023C
:10007000232CF102232E0103232011052322210525
:10008000232431052326410523285105232A610510
:10009000232C7105232E8105232091072322A107FC
:1000A0002324B1072326C1072328D107232AE107E8
:1000B000232CF107F3221034232E5106732520340C
:1000C000F325103413060100EF00C01F7310153420
:1000D000B72200009382028073A0023083200100C7
:1000E00003214100832181000322C10083220101F9
:1000F00003234101832381010324C10183240102DD
:1001000003254102832581020326C10283260103C0
:1001100003274103832781030328C10383280104A4
:100120000329410483298104032AC104832A010588
:10013000032B4105832B8105032CC105832C01066C
:10014000032D4106832D8106032EC106832E010750
:10015000032F4107832F810713010108730020300B
:10016000B7270080130101FE938707362322F10091
:1001700037270080B7270080232E11002324010099
:10018000232601009387073C1307073C93860181D0
:1001900063F2F604938701811387018193860189B5
:1001A00063F4F604938701891387018A6378F7045F
:1001B0009387018A138701A86378F70493054100A8
:1001C00013051000EF1050418320C10113010102FB
:1001D0006780000003260700938747001307470046
:1001E00023AEC7FE6FF0DFFA0326070093874700B0
:1001F0001307470023AEC7FE6FF09FFA23A0070046
:10020000938747006FF09FFA23A00700938747006A
:100210006FF09FFA6780000093070008F3B707307C
:10022000F377043067800000F367043067800000D4
:10023000130101FF930540062324810023261100AA
:1002400013040500EF10D0789387018923A0A7003D
:1002500023A207009307300663F28706F32740F1D5
:1002600037C70044032887FF8328C7FF33070501EA
:100270003335A70013060700371700001307078060
:10028000B387E7009397370037070044B307F700B9
:1002900023A0C700B306150123A2D70093070008C7
:1002A000F3A74730F3670430130500008320C10033
:1002B0000324810013010101678000001305100071
:1002C0006FF0DFFE130101FF2322910023261100AE
:1002D0002324810023202101938405006358051203
:1002E00013151500135515009307B000631EF5088C
:1002F000F32740F193870720370400409397C70006
:10030000B307F40003A9470093870181131729005D
:10031000B387E70083A70700E7800700F32740F1D2
:10032000938707209397C700B307F40023A2270100
:1003300093071000631CF502F32740F193975700D1
:1003400013575900B387E700939727003304F4004D
:10035000B72700003304F400832704003315250178
:100360001345F5FF3375F5002320A4008320C10059
:100370000324810013850400032901008324410024
:100380001301010167800000930770006314F506F4
:1003900013040008F3374430EF10901FB7C7004430
:1003A00003A887FF83A8C7FFF32740F1938601893D
:1003B00003A7060083A546003307E800333507018D
:1003C000130607003717000013070780B387E700FD
:1003D0009397370037070044B307F700B385B80099
:1003E000B306B50023A0C70023A2D700732444306E
:1003F0006FF0DFF793073000631AF500EF00C002DB
:10040000B707004423A007006FF05FF6F3274034DE
:10041000F3273034F3275030F3270034F32700302C
:10042000730010006FF09FF4130101FF1305A0008B
:1004300023261100EF00C00E1305000067800000A6
:1004400013050000678000001305000067800000AE
:10045000130500006780000013050000678000009E
:10046000130500006780000013050000678000008E
:10047000130500006780000013050000678000007E
:10048000130500006780000013050000678000006E
:10049000130500006780000013050000678000005E
:1004A000130500006780000013050000678000004E
:1004B000130500006780000013050000678000003E
:1004C000130500006780000013050000678000002E
:1004D000130500006780000013050000678000001E
:1004E000130500006780000013050000678000000E
:1004F00013050000678000001305000067800000FE
:1005000013050000678000001305000067800000ED
:1005100013050000678000001305000067800000DD
:100520006F0000006FF05FD0130101FE232E110059
:10053000732500302326A100EFF01FCE8320C101D8
:100540000325C1001301010267800000731005300C
:10055000678000002320B5006780000003250500A8
:1005600067800000138E0600331EBE00337ECE006F
:10057000032305009303060093C3F3FF3373730053
:100580003363C30123206500678000000325050055
:100590003375C5003355B500678000002310B500E2
:1005A000678000000315050067800000138E0600B9
:1005B000331EBE00337ECE000313050093030600F6
:1005C00093C3F3FF337373003363C30123106500D8
:1005D00067800000031505003375C5003355B5006D
:1005E000678000002300B500678000000305050058
:1005F00067800000138E0600331EBE00337ECE00DF
:10060000030305009303060093C3F3FF33737300E2
:100610003363C30123006500678000000305050004
:100620003375C5003355B500678000008347050664
:10063000638C070003250500930610001306400095
:10064000930520006FF01FFB67800000130101FE7F
:10065000232E1100232C8100232A9100130405006E
:1006600023282101232631012324410193840600FC
:100670009389050013090600EFF01FEB130A05002C
:10068000130640069305000013058400EF10103F89
:100690001319190023203401232224011385090092
:1006A000930600001306000493056000EFF09FF42A
:1006B0000325040093061000130600049305600050
:1006C000EFF05FF30325040093D6240093F61600A1
:1006D0001306000893057000EFF0DFF10325040016
:1006E00093D6140093F6160013062000930510000D
:1006F000EFF05FF00325040093F6140013061000DA
:1007000093050000EFF01FEF03250400832544004C
:100710001305C500EFF01FED0325040083254400F9
:100720001305C501EFF01FEC032481018320C101F3
:1007300083244101032901018329C10013050A0013
:10074000032A8100130101026FF05FE0130101FD34
:100750002324810223229102130405002326B100E1
:100760002324C1002322D1002320E10023261102EB
:10077000EFF09FDB8347C4009304050003270100CB
:1007800083264100032681008325C100639607006C
:10079000930710002306F40093071000232AF402A5
:1007A000230AE40003274405939515002305F40666
:1007B0002324B40023220402232CC400232ED400BB
:1007C000232004026312F706A304E4060347840609
:1007D00093071000631CF700032504009306000034
:1007E0001306800093053000EFF0DFE003250400DE
:1007F00013054500EFF09FDFA30FA1008347F10130
:100800001305040093F7F70FA30FF100EF00007D2D
:10081000032481028320C102138504008324410242
:10082000130101036FF09FD203250400930610000B
:100830001306000293055000EFF0DFDB6FF01FF9A5
:1008400093082000232A1503638A0712638806127F
:10085000130101FC232C8102232A91022328210366
:100860002326310323244103232251032320610340
:10087000232E71011389070013040500232E110292
:10088000130A0800930A070093890600130B060059
:1008900093840500EFF05FC98347C400930B050004
:1008A00063960700930730002306F4001307100037
:1008B00093073000232AE4022305F4068327440526
:1008C000939514002324B40023220402232C6401F2
:1008D000232E34012320040223245403232624033B
:1008E00023280402230A4401639EE706A304F406B6
:1008F0000347840693071000631CF70003250400D8
:10090000930600001306800093053000EFF09FCEA1
:100910000325040013054500EFF05FCDA307A100F8
:100920008347F1001305040093F7F70FA307F100C5
:10093000EF00C06A032481038320C10383244103A1
:10094000032901038329C102032A8102832A410268
:10095000032B010213850B00832BC101130101043A
:100960006FF0DFBE0325040093061000130600029B
:1009700093055000EFF01FC86FF09FF767800000ED
:10098000130101FE232E1100232C81002326B10028
:1009900013040500EFF05FB98325C100232CB402D6
:1009A000EFF0DFBA9307100003254403E30EF5FED2
:1009B0008320C1010324810113010102678000002B
:1009C000130101FE232C81001304050003250500FB
:1009D000232E1100232A910013054500EFF01FC1BB
:1009E000A307A1008347F1001307000793F7F70F50
:1009F0006388E74A6362F71413078003638EE73462
:100A00006364F70A130780016386E730636CF704B9
:100A100013078000638EE72613070001638AE72629
:100A200003250400930600001306000293055000FE
:100A3000EFF05FBC032744032306040023220404D1
:100A4000930710006316F70093072000232AF4028F
:100A50000327440593071000631EF728930720001F
:100A60006F004048130780026386E72A13070003DC
:100A7000032504006386E70013070002E392E7FA08
:100A8000930610001306000193054000EFF09FB697
:100A900093072000232AF402230604001305040010
:100AA000EFF0DFB86F0000251307000503250400F1
:100AB000638EE736636AF70013070004638EE7303E
:100AC000130780046FF09FFB13070006638AE73C5F
:100AD000130780066382E73C13078005E392E7F47F
:100AE000832704038324840213058500B384F40060
:100AF000EFF0DFAF2380A4008347440193F7170092
:100B00002304F406639E07340325040093061000B3
:100B10001306000193054000EFF0DFAD130504005C
:100B2000EFF0DFB09307100023060400232A04022D
:100B30006392071C6F0000281307800A638EE70684
:100B4000636EF704130780086384E732636CF7026F
:100B5000130780076382E73413070008E392E7EC8A
:100B600083278404638E073A032704058327C4047C
:100B7000636EF736930600001306400093052000CD
:100B80006F00401E130780096384E72E1307000AD5
:100B9000638EE738130700096FF05FFC1307000C42
:100BA000638AE70C636CF70A1307000B6386E700A0
:100BB0001307800BE396E7E68347F1001307800AEB
:100BC0006312F704032504009307500093041000F8
:100BD0002306F40023280400232A940413060002A9
:100BE00093055000EFF09FA3630E0500032504005A
:100BF000930600001306000293055000EFF09F9F3C
:100C0000A304940603250400032744048327040453
:100C1000130585009305F00F637CF7008327C40359
:100C2000930617002322D404B387E70083C5070087
:100C3000EFF05F9B0327440483270404636CF70AE7
:100C400003250400930600001306400093052000CE
:100C5000EFF05F9A232204046F00C0091307800D90
:100C6000638EE7341307000E6386E7081307800CD2
:100C7000E398E7DA23220404032504009306100016
:100C80001306400093052000EFF0DF966F00403020
:100C9000032504009306000013060002930550008C
:100CA000EFF05F950325040083258400130585007C
:100CB000EFF05F930325040083264402130610001F
:100CC0009305000013058500EFF0DF9283274402AF
:100CD000639E07022320040283479406638407006F
:100CE000A30404068347A4060347C4006304F70073
:100CF0002306F40003250400930600001306800079
:100D000093053000EFF01F8F6F00C00A2328040204
:100D10006FF09FFC032704028327C4016374F7026A
:100D20008327840193061700032504002320D4029F
:100D3000B387E70083C5070013058500EFF09F8A9E
:100D40006FF05FFB0347C400930730006312F702A4
:100D5000930710002322F4029306100013060002EA
:100D60009305500003250400EFF0DF886FF09FF833
:100D7000834744012306040093F717002304F40675
:100D80006394070203250400930610001306000174
:100D900093054000EFF01F8613050400EFF01F8954
:100DA000232A04026FF01FF513050400EF0040230F
:100DB000232A04020325040013054500EFF01F83D6
:100DC0008320C10103248101A307A10083244101E1
:100DD00013010102678000000327C402930710007B
:100DE0009306100063E6E700631AF700930600001D
:100DF00013064000930520006FF01FF793061000C4
:100E00001306400093052000EFF0CFFE03250400F9
:100E1000930610001306000193054000EFF08FFDCC
:100E2000232A0402230604006FF0DFEC8327040367
:100E30008324840213058500138717002328E40206
:100E4000B384F400EFF08FFA2380A4008327C40258
:100E5000032704039387F7FFE36EF7E86FF09FD152
:100E600013050400EF00C017930700006FF0DFCBFD
:100E7000032504009306100013064000930520008C
:100E8000EFF04FF78347940623060400232A040457
:100E9000E38207E66FF05FEC93071000A304F4060B
:100EA00003250400930740002306F40023280404CC
:100EB000232804001306000293055000EFF00FF6FC
:100EC00063000502032504009306000013060002D8
:100ED00093055000EFF00FF293071000A304F406FF
:100EE00093071000232AF4046FF0DFE003250400C9
:100EF00013058500EFF08FEF832704050327840493
:100F0000938617003307F7002328D4042300A70093
:100F10008327040193978700B387A7002328F40051
:100F2000032704058327C4046FF01FF30347C4009D
:100F3000930740006310F708032604058327840500
:100F40006316F600832704012322F4048327C405D3
:100F5000E38407D283258404131606011356060181
:100F600013050400E780070063180500130504005B
:100F7000EFF0CFEB6F00C0010325040093060000E3
:100F80001306400093052000EFF0CFE6230004068F
:100F900083479406232A0404E38607E80325040014
:100FA000930610001306000293055000EFF08FE443
:100FB0006FF05FE7232204046FF05FFB0327440513
:100FC000230604002322040493071000E318F7AC5F
:100FD00093072000232AF4046FF05FAC67800000C1
:100FE00067800000130101FF232481001304050022
:100FF0002322910023202101232611002320B40065
:10100000938405002322C500138905081385040075
:101010009305000093844400EFF0CFDCE39824FFB5
:101020008327440013071000638AE70263840706DE
:1010300013072000639AE70A0325040003248100B4
:101040008320C10083244100032901009305F0FFA0
:1010500013050508130101016FF0CFCF032504002C
:10106000B70401009385F4FF13050508EFF00FD3D3
:1010700003250400032481008320C100032901000B
:101080009385F4FF832441001305450813010101F2
:101090006FF0CFD0032504009305F00F130505086A
:1010A000EFF04FD4032504009305F00F1305450816
:1010B000EFF04FD3032504009305F00F13058508C7
:1010C000EFF04FD203250400032481008320C100E8
:1010D00083244100032901009305F00F1305C5087F
:1010E000130101016FF00FD08320C10003248100A0
:1010F00083244100032901001301010167800000DE
:10110000130101FE232A910083244500232C810032
:10111000232821012326310123225101232E1100EE
:101120002324410113041000930A050013890500CC
:1011300093090600638E84046384040C93072000E3
:101140006396F41203250500331424011305050AE0
:10115000EFF0CFC0B365A400639609001344F4FF19
:10116000B375A40003A50A00032481018320C101F3
:1011700083244101032901018329C100032A81003D
:10118000832A41001305050A130101026FF08FBC89
:101190008327050013DA4500131A2A00130A0A0AE6
:1011A0001374F900330AFA00B394840013050A009B
:1011B00093940401EFF00FBF93D40441639E09029E
:1011C00093C4F4FFB3F4A4000324810193950401B4
:1011D0008320C10183244101032901018329C10026
:1011E000832A410013050A00032A810093D50501D3
:1011F000130101026FF08FBAB3E4A4006FF0DFFCBB
:101200008327050093D43500939424009384040A23
:1012100013797900B384F400331424011385040096
:1012200013148401EFF08FBC13548441639C0902B2
:101230001344F4FF3374A4009375F40F0324810165
:101240008320C101032901018329C100032A8100F0
:10125000832A410013850400832441011301010204
:101260006FF04FB83364A4006FF01FFD8320C101FD
:101270000324810183244101032901018329C10041
:10128000032A8100832A41001301010267800000C4
:10129000130101FF23248100232611002322910042
:1012A0009307100013848189631CF5049387018AD6
:1012B000130700032380E700A380B7002381C70042
:1012C0009305A0011386018A13070000138501A16D
:1012D00093063000EFF08FC793050000138501A13E
:1012E000EFF00FEA2320A400032504008320C100AF
:1012F0000324810083244100130101016780000061
:1013000093072000E312F5FE9387018A1307000379
:101310002380E700A380B7002381C7009305000165
:101320001386018A13070000138581999306300004
:10133000EFF0CFC193050000138581996FF05FFA3C
:10134000130101FE232821012326310113198500F1
:1013500013558500232E1100232C8100232A910090
:10136000232441019384018A3369A9001386018AE9
:10137000138A0500239024012381B4001307000081
:1013800093063000138501A19305A001EFF00FBC77
:1013900093050000138501A1EFF08FDE138481898E
:1013A00023902401238144012320A4001386018A71
:1013B00013858199130700009306300093050001FF
:1013C000EFF0CFB81385819993050000EFF04FDB64
:1013D0002320A4008320C10103248101832441012F
:1013E000032901018329C100032A8100130101029D
:1013F00067800000130101FF930600001306A0019F
:10140000B7750070138501A12326110023248100E4
:10141000EFF0CFA39306000013060001B74500705C
:1014200013858199EFF08FA21385019013060000B8
:1014300093058000EFF0DFCC1306000093057000E9
:1014400013850190EFF0DFCB13054006EF009012FB
:10145000138501901306100093058000EFF05FCA1A
:10146000130610009305700013850190EFF05FC91B
:1014700013054006EF0010101385019013061000AD
:1014800093059000EFF0DFC7032481008320C100A3
:1014900013054006130101016F00D00D130101FF78
:1014A0009305100037350000232611002324810006
:1014B0002322910037340000EFF09FE893054000AD
:1014C00013058401EFF0DFE79305A00C1305040377
:1014D000EFF01FE79305800013051403EFF05FE6BC
:1014E0009305000013052403EFF09FE59305C00466
:1014F00013054403EFF0DFE49305400013055403A4
:10150000EFF01FE4930500031305C402EFF05FE35F
:10151000930500001305D402EFF09FE2930500004D
:101520001305E402EFF0DFE19305F0001305F40288
:10153000EFF01FE19305000B13054407EFF05FE0A8
:101540009305000013055407EFF09FDF9305100B80
:101550001305E408EFF0DFDE930500001305F4083F
:10156000EFF01FDE9305000713056407EFF05FDD62
:101570009305800013057407EFF09FDC93050007C7
:1015800013050409EFF0DFDB930580001305140950
:10159000EFF01FDB9305000713058430EFF05FDAEF
:1015A0009305800013059430EFF09FD99305000058
:1015B0001305640CEFF0DFD8930500001305740CDD
:1015C000EFF01FD8930500001305E40CEFF05FD790
:1015D000930500001305F40CEFF09FD6930500026D
:1015E0001305840DEFF0DFD5930520011305940D4D
:1015F000EFF01FD5930500001305C404EFF05FD48E
:10160000930500001305E404EFF09FD39305000059
:101610001305F404EFF0DFD2930500001305040571
:10162000EFF01FD2930500001305640BEFF05FD1BC
:10163000930500001305740BEFF09FD09305800015
:1016400013056411EFF0DFCF93050000130574114B
:10165000EFF01FCF930500021305041AEFF05FCEE1
:101660009305F0001305141AEFF09FCD93052004A5
:101670001305C400EFF0DFCC9305E0021305D4009E
:10168000EFF01FCC9305000B1305C414EFF05FCBF4
:10169000930500001305D414EFF09FCA93052000B2
:1016A0001305A415EFF0DFC99305F00813058416A0
:1016B000EFF01FC99305E0071305A416EFF05FC80C
:1016C000930510001305E419EFF09FC79305000080
:1016D00013059419EFF0DFC6930500001305D41924
:1016E000EFF01FC6930530001305D41DEFF05FC562
:1016F0009305000013050430EFF09FC49305F00F2D
:101700001305C441EFF0DFC3930510001305D44166
:10171000B7440000EFF0DFC293053000138514A03A
:10172000EFF01FC29305F007138584A1EFF05FC1AE
:1017300093050000138594A1EFF09FC093057003FB
:101740001385A4A1EFF0DFBF930500001385B4A1BA
:10175000EFF01FBF930570031385C4A1EFF05FBEC8
:10176000930500001385D4A1EFF09FBD9305700F82
:101770001385E4A1EFF0DFBC930500001385F4A10D
:10178000EFF01FBC9305F003138504A2EFF05FBBDD
:1017900093050000138514A2EFF09FBA9305F0069D
:1017A000138504A2EFF0DFB993050000138514A29E
:1017B000EFF01FB99305F003138504A2EFF05FB8B3
:1017C00093050000138514A2EFF09FB79305F00571
:1017D000138504A2EFF0DFB693050000138514A271
:1017E000EFF01FB69305F002138504A2EFF05FB58A
:1017F00093050000138514A2EFF09FB49305200019
:1018000013058407EFF0DFB3930500001305940779
:10181000EFF01FB3930500001305A407EFF05FB2CC
:10182000930500001305B407EFF09FB19305200066
:1018300013050408EFF0DFB093050000130514084A
:10184000EFF01FB09305000013052408EFF05FAF21
:101850009305000013053408EFF09FAE93052000B8
:1018600013058408EFF0DFAD93050000130544096C
:10187000EFF01FAD9305000013055409EFF05FACC6
:101880009305000013056409EFF09FAB930520005A
:101890001305B409EFF0DFAA930500001305C4098E
:1018A000EFF01FAA930500001305D409EFF05FA91C
:1018B000930500001305E409EFF09FA893050000CD
:1018C0001305440AEFF0DFA7930500001305540A3F
:1018D000EFF01FA79305100213058428EFF05FA611
:1018E000930520001305A428EFF09FA59305500051
:1018F00013054441EFF0DFA4930580011305644113
:10190000EFF01FA49305E0001305C45AEFF05FA3A6
:101910009305100013058464EFF09FA29305400027
:101920001305A464EFF0DFA1930540001305C46420
:10193000EFF01FA19305100013058467EFF05FA07F
:10194000930510031305C467EFF09F9F93051003E1
:101950001305E467EFF0DF9E930520001305847004
:10196000EFF01F9E9305100013054471EFF05F9D8B
:101970009305200013055471EFF09F9C9305200000
:1019800013056471EFF0DF9B93052000130574715C
:10199000EFF01F9B9305D0031305C471EFF05F9A1E
:1019A0009305F0031305D471EFF09F9993050000A0
:1019B0001305C472EFF0DF98930500001305D4728D
:1019C000EFF01F98930560041305E472EFF05F9742
:1019D000930500001305F472EFF09F9693059008AD
:1019E00013050473EFF0DF959305000013051473DE
:1019F000EFF01F959305800013052473EFF05F94BB
:101A00009305100013053473EFF09F939305E00FD7
:101A100013054473EFF0DF929305500013055473E0
:101A2000EFF01F92930500001305D475EFF05F915E
:101A3000930500001305E475EFF09F9093051006E1
:101A40001305F475EFF0DF8F93056000130504763E
:101A5000EFF01F8F9305B00113058476EFF05F8ED2
:101A60009305B00113059476EFF09F8D9305A001C7
:101A70001305A476EFF0DF8C930590011305B4767F
:101A8000EFF01F8C930580011305C476EFF05F8B98
:101A9000930540011305D476EFF09F8A9305F0007B
:101AA0001305E476EFF0DF899305000013056477F2
:101AB000EFF01F899305000013057477EFF05F883E
:101AC0009305600413058477EFF09F87930500006A
:101AD00013059477EFF0DF86930580001305A47754
:101AE000EFF01F86930510001305B477EFF05F85C4
:101AF000930550041305C477EFF09F8493051000FD
:101B00001305D477EFF0DF83930530021305E477F4
:101B1000EFF01F83930520001305F477EFF05F8249
:101B20009305900D13050478EFF09F819305300025
:101B300013051478EFF0DF809305500F1305247818
:101B4000EFF01F809305600013053478EFF04FFF2E
:101B50009305500A13054478EFF08FFE9305F000CB
:101B600013058478EFF0CFFD9305900D1305A4784D
:101B7000EFF00FFD930530001305B478EFF04FFC44
:101B80009305B00E1305C478EFF08FFB930550005A
:101B90001305D478EFF0CFFA930570081305E478B5
:101BA000EFF00FFA930560001305F478EFF04FF9AA
:101BB0009305500F13050479EFF08FF89305300467
:101BC00013052479EFF0CFF79305A00713054479A7
:101BD000EFF00FF79305100A13056479EFF04FF655
:101BE000930570031305047BEFF08FF59305E00078
:101BF000138544E0EFF0CFF4930500031305840E42
:101C0000EFF00FF4930500001305940EEFF04FF37F
:101C10009305E000138544E0EFF08FF29305000098
:101C200013052400EFF0CFF11305803EEF00801480
:101C3000032481008320C100832441009305000018
:101C400037350000130101016FF08FEF130101FF21
:101C5000232481003734000013F6F50F9305840E1A
:101C6000232291002326110093040500EFF04FE298
:101C70009305940E032481008320C1001385040082
:101C80008324410013060000130101016FF04FE0AF
:101C9000130101FD23229102930600001306100098
:101CA000B7850070138581912326110223248102B8
:101CB00023202103232C4101232E310137240080CE
:101CC000EFE0DF981305100013048436EF00800A5C
:101CD000130A24051389018E8349040083471400E5
:101CE0006384090823003901A300F900930620004A
:101CF00013070000130609009305900313858191D3
:101D0000EFE0DFA49305000013858191EFE05FC74A
:101D100013080000930710001307E100930610005A
:101D20001306F1009305900313858191A3073101F8
:101D3000EFE01FB193050000138581911304240087
:101D4000EFE01FC4E31A8AF88320C1020324810252
:101D500083244102032901028329C101032A81014D
:101D600013010103678000002300F90093061000AF
:101D70006FF01FF823A8A19023A601A0130710005D
:101D800023AEE18803A7C189E31E07FE6780000038
:101D90009387C18983A60700130710006390E602AA
:101DA00083A6C1A09386160023A6D1A083A6019185
:101DB00003A7C1A06364D70023A0070067800000C9
:101DC000138581996FE0DFBF138501A16FE05FBFCD
:101DD000138581916FE0DFBE130101FA232C81048A
:101DE0001385019013062000B7550070232E1104AF
:101DF000232A910423282105232631052324410584
:101E00002322510523206105232E7103232C8103F6
:101E1000232A91032328A1032326B103232E0100A3
:101E2000EFF04F9C130610009305000013850190FE
:101E3000EFF00FADF32740F11387070493167700F7
:101E4000370700403307D70023200700B7040040BE
:101E5000130700001306F00193162700B386D40081
:101E600023A0060013071700E318C7FE9387072077
:101E70009397C700B387F40023A00700B7170000AB
:101E800093870780F3A7473037C500001305053552
:101E9000EFE00FBA9307100023AAF406732740F16E
:101EA000131777003387E400B72600003307D70005
:101EB00003260700B70500203366B6002320C700BD
:101EC00023A8F406732740F1131777003387E40043
:101ED0003307D70003260700B70500103366B600A6
:101EE0002320C70023ACF406F32740F19397770033
:101EF000B387F400B387D70003A7070037090100B1
:101F0000B364970023A09700EFE0CFE11306000031
:101F10009305400013850190EFF08F9E130610008B
:101F20009305100013850190EFF08F9DEFF05FD6C1
:101F3000130610009305800013850190EFF04F9C6D
:101F4000130610009305700013850190EFF04F9B6E
:101F5000130600009305900013850190EFF04F9A4F
:101F6000EFF04FC913051000EFF04FD31306100028
:101F70009305200013850190EFF08F98130540061C
:101F8000EFF05FDF1306100093054000138501900A
:101F9000EFF00F97130610009305300013850190A2
:101FA000EFF00F961309F9FFB72900801305E00140
:101FB000EFF05FDCB794007003A6040283AD440227
:101FC00083A6840283A7040383AC440393053018DB
:101FD0002393F198B3F727011385070813172500FA
:101FE0003307A70013156700B385F5403305A70035
:101FF0002398D18E239CC18E239AB199239291A1CB
:102000002324D1002326C100EF00001C0326C100B9
:10201000135D554093050D0033752601EF008018C0
:102020009305A000EF00401A832681002326A1001B
:1020300093050D0033F52601EF00C0169305A000AF
:10204000EF0080182324A10093050D0033F52D0126
:10205000EF0040159305A000EF000017930D050059
:10206000930560FF13157D00EF0000160327C100E4
:1020700083278100B3FC2C0123A2E40023A4B40134
:10208000B30C950123A6F400939C7C0023A8940133
:1020900083A7840383A4C403B706BB1713071000E8
:1020A00063EED7003797F4191307078033B7E700BB
:1020B0001307F7FF131707011357074183D7093C8D
:1020C000930640003307F700131707011357070162
:1020D0009387093C63E8E60A130750002390E70062
:1020E00083D5070013051000EFF05FB63707A30292
:1020F0009307100063EEE400B757E202938707806E
:10210000B3B7F4009387F7FF9397070193D707417D
:10211000372700808356273C1307273CB387D70017
:102120009397070193D707019306400063E4F606EF
:10213000930750002310F700835507001305200074
:10214000EFF0DFB08327C10113060000938717006B
:10215000232EF1000327C1019307F00063F4E70089
:10216000130610009305000013850190EFE05FF95E
:102170000327C10193070002E31AF7E2232E0100AF
:102180006FF09FE293063006E3FAE6F41307400689
:102190006FF0DFF493063006E3FEF6F8930740068F
:1021A0006FF05FF9130605001305000093F61500A4
:1021B000638406003305C50093D515001316160079
:1021C000E39605FE678000006340050663C60506CA
:1021D00013860500930505001305F0FF630C060246
:1021E00093061000637AB6006358C00013161600F9
:1021F00093961600E36AB6FE1305000063E6C50079
:10220000B385C5403365D50093D616001356160026
:10221000E39606FE6780000093820000EFF05FFB0C
:1022200013850500678002003305A04063D80500D0
:10223000B305B0406FF0DFF9B305B0409382000002
:10224000EFF01FF93305A040678002009382000081
:1022500063CA0500634C0500EFF09FF71385050086
:1022600067800200B305B040E35805FE3305A04087
:10227000EFF01FF63305B040678002001303F00053
:1022800013070500637EC3029377F7006390070A84
:1022900063920508937606FF1376F600B386E60090
:1022A0002320B7002322B7002324B7002326B7003A
:1022B00013070701E366D7FE63140600678000007A
:1022C000B306C3409396260097020000B3865600DB
:1022D0006780C6002307B700A306B7002306B70030
:1022E000A305B7002305B700A304B7002304B70074
:1022F000A303B7002303B700A302B7002302B7006C
:10230000A301B7002301B700A300B7002300B70063
:102310006780000093F5F50F93968500B3E5D5002F
:1023200093960501B3E5D5006FF0DFF6939627008D
:1023300097020000B386560093820000E78006FAF9
:1023400093800200938707FF3307F7403306F600B8
:10235000E378C3F66FF0DFF3000000000000000038
:1023600068656C6C6F000000F900411098039AE0FA
:102370009C309D61A2A4A3A4E0D0F900DE109400DB
:10238000A140BA60D6C0150016301702D030180030
:102390004080480049A84C0055005608AF06000090
:1023A000000000000000000000000000000000002D
:1023B000000000000000000000000000000000001D
:1023C000500050000000000000000000000000006D
:1023D00038040080400400804804008050040080DD
:1023E000580400806004008068040080700400804D
:1023F00078040080800400808804008090040080BD
:1024000098040080A0040080A8040080B00400802C
:10241000B8040080C0040080C8040080D00400809C
:10242000D8040080E0040080E8040080F00400800C
:10243000F804008000050080080500801005008079
:10244000D01D0080C81D0080C01D008018050080C0
:040000058000000077
:00000001FF
